{
  "contractName": "FiveToken",
  "abi": [
    {
      "inputs": [
        {
          "internalType": "string",
          "name": "token_name",
          "type": "string"
        },
        {
          "internalType": "string",
          "name": "ticker",
          "type": "string"
        },
        {
          "internalType": "uint8",
          "name": "token_decimals",
          "type": "uint8"
        },
        {
          "internalType": "uint256",
          "name": "token_totalSupply",
          "type": "uint256"
        }
      ],
      "stateMutability": "nonpayable",
      "type": "constructor"
    },
    {
      "anonymous": false,
      "inputs": [
        {
          "indexed": true,
          "internalType": "address",
          "name": "owner",
          "type": "address"
        },
        {
          "indexed": true,
          "internalType": "address",
          "name": "spender",
          "type": "address"
        },
        {
          "indexed": false,
          "internalType": "uint256",
          "name": "value",
          "type": "uint256"
        }
      ],
      "name": "Approval",
      "type": "event"
    },
    {
      "anonymous": false,
      "inputs": [
        {
          "indexed": true,
          "internalType": "address",
          "name": "previousOwner",
          "type": "address"
        },
        {
          "indexed": true,
          "internalType": "address",
          "name": "newOwner",
          "type": "address"
        }
      ],
      "name": "OwnershipTransferred",
      "type": "event"
    },
    {
      "anonymous": false,
      "inputs": [
        {
          "indexed": true,
          "internalType": "address",
          "name": "user",
          "type": "address"
        },
        {
          "indexed": false,
          "internalType": "uint256",
          "name": "amount",
          "type": "uint256"
        },
        {
          "indexed": false,
          "internalType": "uint256",
          "name": "index",
          "type": "uint256"
        },
        {
          "indexed": false,
          "internalType": "uint256",
          "name": "timestamp",
          "type": "uint256"
        }
      ],
      "name": "Staked",
      "type": "event"
    },
    {
      "anonymous": false,
      "inputs": [
        {
          "indexed": true,
          "internalType": "address",
          "name": "from",
          "type": "address"
        },
        {
          "indexed": true,
          "internalType": "address",
          "name": "to",
          "type": "address"
        },
        {
          "indexed": false,
          "internalType": "uint256",
          "name": "value",
          "type": "uint256"
        }
      ],
      "name": "Transfer",
      "type": "event"
    },
    {
      "inputs": [
        {
          "internalType": "address",
          "name": "staker",
          "type": "address"
        }
      ],
      "name": "hasStake",
      "outputs": [
        {
          "components": [
            {
              "internalType": "uint256",
              "name": "total_amount",
              "type": "uint256"
            },
            {
              "components": [
                {
                  "internalType": "address",
                  "name": "user",
                  "type": "address"
                },
                {
                  "internalType": "uint256",
                  "name": "amount",
                  "type": "uint256"
                },
                {
                  "internalType": "uint256",
                  "name": "since",
                  "type": "uint256"
                },
                {
                  "internalType": "uint256",
                  "name": "claimable",
                  "type": "uint256"
                }
              ],
              "internalType": "struct Stakeable.Stake[]",
              "name": "stakes",
              "type": "tuple[]"
            }
          ],
          "internalType": "struct Stakeable.StakingSummary",
          "name": "",
          "type": "tuple"
        }
      ],
      "stateMutability": "view",
      "type": "function",
      "constant": true
    },
    {
      "inputs": [],
      "name": "owner",
      "outputs": [
        {
          "internalType": "address",
          "name": "",
          "type": "address"
        }
      ],
      "stateMutability": "view",
      "type": "function",
      "constant": true
    },
    {
      "inputs": [],
      "name": "renounceOwnership",
      "outputs": [],
      "stateMutability": "nonpayable",
      "type": "function"
    },
    {
      "inputs": [
        {
          "internalType": "address",
          "name": "newOwner",
          "type": "address"
        }
      ],
      "name": "transferOwnership",
      "outputs": [],
      "stateMutability": "nonpayable",
      "type": "function"
    },
    {
      "inputs": [],
      "name": "decimals",
      "outputs": [
        {
          "internalType": "uint8",
          "name": "",
          "type": "uint8"
        }
      ],
      "stateMutability": "view",
      "type": "function",
      "constant": true
    },
    {
      "inputs": [],
      "name": "symbol",
      "outputs": [
        {
          "internalType": "string",
          "name": "",
          "type": "string"
        }
      ],
      "stateMutability": "view",
      "type": "function",
      "constant": true
    },
    {
      "inputs": [],
      "name": "name",
      "outputs": [
        {
          "internalType": "string",
          "name": "",
          "type": "string"
        }
      ],
      "stateMutability": "view",
      "type": "function",
      "constant": true
    },
    {
      "inputs": [],
      "name": "totalSupply",
      "outputs": [
        {
          "internalType": "uint256",
          "name": "",
          "type": "uint256"
        }
      ],
      "stateMutability": "view",
      "type": "function",
      "constant": true
    },
    {
      "inputs": [],
      "name": "getOwner",
      "outputs": [
        {
          "internalType": "address",
          "name": "",
          "type": "address"
        }
      ],
      "stateMutability": "view",
      "type": "function",
      "constant": true
    },
    {
      "inputs": [
        {
          "internalType": "address",
          "name": "account",
          "type": "address"
        }
      ],
      "name": "balanceOf",
      "outputs": [
        {
          "internalType": "uint256",
          "name": "",
          "type": "uint256"
        }
      ],
      "stateMutability": "view",
      "type": "function",
      "constant": true
    },
    {
      "inputs": [
        {
          "internalType": "address",
          "name": "owner",
          "type": "address"
        },
        {
          "internalType": "address",
          "name": "spender",
          "type": "address"
        }
      ],
      "name": "allowance",
      "outputs": [
        {
          "internalType": "uint256",
          "name": "",
          "type": "uint256"
        }
      ],
      "stateMutability": "view",
      "type": "function",
      "constant": true
    },
    {
      "inputs": [
        {
          "internalType": "address",
          "name": "account",
          "type": "address"
        },
        {
          "internalType": "uint256",
          "name": "amount",
          "type": "uint256"
        }
      ],
      "name": "burn",
      "outputs": [
        {
          "internalType": "bool",
          "name": "",
          "type": "bool"
        }
      ],
      "stateMutability": "nonpayable",
      "type": "function"
    },
    {
      "inputs": [
        {
          "internalType": "address",
          "name": "account",
          "type": "address"
        },
        {
          "internalType": "uint256",
          "name": "amount",
          "type": "uint256"
        }
      ],
      "name": "mint",
      "outputs": [
        {
          "internalType": "bool",
          "name": "",
          "type": "bool"
        }
      ],
      "stateMutability": "nonpayable",
      "type": "function"
    },
    {
      "inputs": [
        {
          "internalType": "address",
          "name": "spender",
          "type": "address"
        },
        {
          "internalType": "uint256",
          "name": "amount",
          "type": "uint256"
        }
      ],
      "name": "increaseAllowance",
      "outputs": [
        {
          "internalType": "bool",
          "name": "",
          "type": "bool"
        }
      ],
      "stateMutability": "nonpayable",
      "type": "function"
    },
    {
      "inputs": [
        {
          "internalType": "address",
          "name": "spender",
          "type": "address"
        },
        {
          "internalType": "uint256",
          "name": "amount",
          "type": "uint256"
        }
      ],
      "name": "decreaseAllowance",
      "outputs": [
        {
          "internalType": "bool",
          "name": "",
          "type": "bool"
        }
      ],
      "stateMutability": "nonpayable",
      "type": "function"
    },
    {
      "inputs": [
        {
          "internalType": "uint256",
          "name": "amount",
          "type": "uint256"
        },
        {
          "internalType": "uint256",
          "name": "stake_index",
          "type": "uint256"
        }
      ],
      "name": "withdrawStake",
      "outputs": [],
      "stateMutability": "nonpayable",
      "type": "function"
    },
    {
      "inputs": [
        {
          "internalType": "address",
          "name": "recipient",
          "type": "address"
        },
        {
          "internalType": "uint256",
          "name": "amount",
          "type": "uint256"
        }
      ],
      "name": "transfer",
      "outputs": [
        {
          "internalType": "bool",
          "name": "",
          "type": "bool"
        }
      ],
      "stateMutability": "nonpayable",
      "type": "function"
    },
    {
      "inputs": [
        {
          "internalType": "uint256",
          "name": "amount",
          "type": "uint256"
        }
      ],
      "name": "stake",
      "outputs": [],
      "stateMutability": "nonpayable",
      "type": "function"
    },
    {
      "inputs": [
        {
          "internalType": "address",
          "name": "spender",
          "type": "address"
        },
        {
          "internalType": "address",
          "name": "recipient",
          "type": "address"
        },
        {
          "internalType": "uint256",
          "name": "amount",
          "type": "uint256"
        }
      ],
      "name": "transferFrom",
      "outputs": [
        {
          "internalType": "bool",
          "name": "",
          "type": "bool"
        }
      ],
      "stateMutability": "nonpayable",
      "type": "function"
    },
    {
      "inputs": [
        {
          "internalType": "address",
          "name": "spender",
          "type": "address"
        },
        {
          "internalType": "uint256",
          "name": "amount",
          "type": "uint256"
        }
      ],
      "name": "approve",
      "outputs": [
        {
          "internalType": "bool",
          "name": "",
          "type": "bool"
        }
      ],
      "stateMutability": "nonpayable",
      "type": "function"
    }
  ],
  "bytecode": "0x60806040526103e86001553480156200001757600080fd5b50604051620037f2380380620037f283398181016040528101906200003d919062000443565b336000806101000a81548173ffffffffffffffffffffffffffffffffffffffff021916908373ffffffffffffffffffffffffffffffffffffffff16021790555060008054906101000a900473ffffffffffffffffffffffffffffffffffffffff1673ffffffffffffffffffffffffffffffffffffffff16600073ffffffffffffffffffffffffffffffffffffffff167f8be0079c531659141344cd1fd0a4f28419497f9722a3daafe3b4186f6b6457e060405160405180910390a3600260018160018154018082558091505003906000526020600020905050600082600a62000127919062000676565b82620001349190620006c7565b9050846007908162000147919062000953565b50836006908162000159919062000953565b5082600560006101000a81548160ff021916908360ff16021790555080600481905550600454600860003373ffffffffffffffffffffffffffffffffffffffff1673ffffffffffffffffffffffffffffffffffffffff168152602001908152602001600020819055503373ffffffffffffffffffffffffffffffffffffffff16600073ffffffffffffffffffffffffffffffffffffffff167fddf252ad1be2c89b69c2b068fc378daa952ba7f163c4a11628f55a4df523b3ef60045460405162000224919062000a4b565b60405180910390a3505050505062000a68565b6000604051905090565b600080fd5b600080fd5b600080fd5b600080fd5b6000601f19601f8301169050919050565b7f4e487b7100000000000000000000000000000000000000000000000000000000600052604160045260246000fd5b620002a08262000255565b810181811067ffffffffffffffff82111715620002c257620002c162000266565b5b80604052505050565b6000620002d762000237565b9050620002e5828262000295565b919050565b600067ffffffffffffffff82111562000308576200030762000266565b5b620003138262000255565b9050602081019050919050565b60005b838110156200034057808201518184015260208101905062000323565b60008484015250505050565b6000620003636200035d84620002ea565b620002cb565b90508281526020810184848401111562000382576200038162000250565b5b6200038f84828562000320565b509392505050565b600082601f830112620003af57620003ae6200024b565b5b8151620003c18482602086016200034c565b91505092915050565b600060ff82169050919050565b620003e281620003ca565b8114620003ee57600080fd5b50565b6000815190506200040281620003d7565b92915050565b6000819050919050565b6200041d8162000408565b81146200042957600080fd5b50565b6000815190506200043d8162000412565b92915050565b6000806000806080858703121562000460576200045f62000241565b5b600085015167ffffffffffffffff81111562000481576200048062000246565b5b6200048f8782880162000397565b945050602085015167ffffffffffffffff811115620004b357620004b262000246565b5b620004c18782880162000397565b9350506040620004d487828801620003f1565b9250506060620004e7878288016200042c565b91505092959194509250565b7f4e487b7100000000000000000000000000000000000000000000000000000000600052601160045260246000fd5b60008160011c9050919050565b6000808291508390505b60018511156200058157808604811115620005595762000558620004f3565b5b6001851615620005695780820291505b8081029050620005798562000522565b945062000539565b94509492505050565b6000826200059c57600190506200066f565b81620005ac57600090506200066f565b8160018114620005c55760028114620005d05762000606565b60019150506200066f565b60ff841115620005e557620005e4620004f3565b5b8360020a915084821115620005ff57620005fe620004f3565b5b506200066f565b5060208310610133831016604e8410600b8410161715620006405782820a9050838111156200063a5762000639620004f3565b5b6200066f565b6200064f84848460016200052f565b92509050818404811115620006695762000668620004f3565b5b81810290505b9392505050565b6000620006838262000408565b91506200069083620003ca565b9250620006bf7fffffffffffffffffffffffffffffffffffffffffffffffffffffffffffffffff84846200058a565b905092915050565b6000620006d48262000408565b9150620006e18362000408565b9250828202620006f18162000408565b915082820484148315176200070b576200070a620004f3565b5b5092915050565b600081519050919050565b7f4e487b7100000000000000000000000000000000000000000000000000000000600052602260045260246000fd5b600060028204905060018216806200076557607f821691505b6020821081036200077b576200077a6200071d565b5b50919050565b60008190508160005260206000209050919050565b60006020601f8301049050919050565b600082821b905092915050565b600060088302620007e57fffffffffffffffffffffffffffffffffffffffffffffffffffffffffffffffff82620007a6565b620007f18683620007a6565b95508019841693508086168417925050509392505050565b6000819050919050565b6000620008346200082e620008288462000408565b62000809565b62000408565b9050919050565b6000819050919050565b620008508362000813565b620008686200085f826200083b565b848454620007b3565b825550505050565b600090565b6200087f62000870565b6200088c81848462000845565b505050565b5b81811015620008b457620008a860008262000875565b60018101905062000892565b5050565b601f8211156200090357620008cd8162000781565b620008d88462000796565b81016020851015620008e8578190505b62000900620008f78562000796565b83018262000891565b50505b505050565b600082821c905092915050565b6000620009286000198460080262000908565b1980831691505092915050565b600062000943838362000915565b9150826002028217905092915050565b6200095e8262000712565b67ffffffffffffffff8111156200097a576200097962000266565b5b6200098682546200074c565b62000993828285620008b8565b600060209050601f831160018114620009cb5760008415620009b6578287015190505b620009c2858262000935565b86555062000a32565b601f198416620009db8662000781565b60005b8281101562000a0557848901518255600182019150602085019450602081019050620009de565b8683101562000a25578489015162000a21601f89168262000915565b8355505b6001600288020188555050505b505050505050565b62000a458162000408565b82525050565b600060208201905062000a62600083018462000a3a565b92915050565b612d7a8062000a786000396000f3fe608060405234801561001057600080fd5b506004361061012c5760003560e01c80638da5cb5b116100ad578063a9059cbb11610071578063a9059cbb1461035b578063dd62ed3e1461038b578063e73e14bf146103bb578063f1fdf469146103eb578063f2fde38b146104075761012c565b80638da5cb5b146102a357806395d89b41146102c15780639dc29fac146102df578063a457c2d71461030f578063a694fc3a1461033f5761012c565b806339509351116100f457806339509351146101eb57806340c10f191461021b57806370a082311461024b578063715018a61461027b578063893d20e8146102855761012c565b806306fdde0314610131578063095ea7b31461014f57806318160ddd1461017f57806323b872dd1461019d578063313ce567146101cd575b600080fd5b610139610423565b6040516101469190611f05565b60405180910390f35b61016960048036038101906101649190611fc0565b6104b5565b604051610176919061201b565b60405180910390f35b6101876104cc565b6040516101949190612045565b60405180910390f35b6101b760048036038101906101b29190612060565b6104d6565b6040516101c4919061201b565b60405180910390f35b6101d561063f565b6040516101e291906120cf565b60405180910390f35b61020560048036038101906102009190611fc0565b610656565b604051610212919061201b565b60405180910390f35b61023560048036038101906102309190611fc0565b6106f4565b604051610242919061201b565b60405180910390f35b610265600480360381019061026091906120ea565b610798565b6040516102729190612045565b60405180910390f35b6102836107e1565b005b61028d61092d565b60405161029a9190612126565b60405180910390f35b6102ab61093c565b6040516102b89190612126565b60405180910390f35b6102c9610965565b6040516102d69190611f05565b60405180910390f35b6102f960048036038101906102f49190611fc0565b6109f7565b604051610306919061201b565b60405180910390f35b61032960048036038101906103249190611fc0565b610a9b565b604051610336919061201b565b60405180910390f35b61035960048036038101906103549190612141565b610b39565b005b61037560048036038101906103709190611fc0565b610bd1565b604051610382919061201b565b60405180910390f35b6103a560048036038101906103a0919061216e565b610be8565b6040516103b29190612045565b60405180910390f35b6103d560048036038101906103d091906120ea565b610c6f565b6040516103e2919061230d565b60405180910390f35b6104056004803603810190610400919061232f565b610e7c565b005b610421600480360381019061041c91906120ea565b610e99565b005b6060600780546104329061239e565b80601f016020809104026020016040519081016040528092919081815260200182805461045e9061239e565b80156104ab5780601f10610480576101008083540402835291602001916104ab565b820191906000526020600020905b81548152906001019060200180831161048e57829003601f168201915b5050505050905090565b60006104c2338484610f33565b6001905092915050565b6000600454905090565b600081600960008673ffffffffffffffffffffffffffffffffffffffff1673ffffffffffffffffffffffffffffffffffffffff16815260200190815260200160002060003373ffffffffffffffffffffffffffffffffffffffff1673ffffffffffffffffffffffffffffffffffffffff168152602001908152602001600020541015610597576040517f08c379a000000000000000000000000000000000000000000000000000000000815260040161058e90612441565b60405180910390fd5b6105a28484846110fc565b610634843384600960008973ffffffffffffffffffffffffffffffffffffffff1673ffffffffffffffffffffffffffffffffffffffff16815260200190815260200160002060003373ffffffffffffffffffffffffffffffffffffffff1673ffffffffffffffffffffffffffffffffffffffff1681526020019081526020016000205461062f9190612490565b610f33565b600190509392505050565b6000600560009054906101000a900460ff16905090565b60006106ea338484600960003373ffffffffffffffffffffffffffffffffffffffff1673ffffffffffffffffffffffffffffffffffffffff16815260200190815260200160002060008873ffffffffffffffffffffffffffffffffffffffff1673ffffffffffffffffffffffffffffffffffffffff168152602001908152602001600020546106e591906124c4565b610f33565b6001905092915050565b60003373ffffffffffffffffffffffffffffffffffffffff1660008054906101000a900473ffffffffffffffffffffffffffffffffffffffff1673ffffffffffffffffffffffffffffffffffffffff1614610784576040517f08c379a000000000000000000000000000000000000000000000000000000000815260040161077b9061256a565b60405180910390fd5b61078e83836113e2565b6001905092915050565b6000600860008373ffffffffffffffffffffffffffffffffffffffff1673ffffffffffffffffffffffffffffffffffffffff168152602001908152602001600020549050919050565b3373ffffffffffffffffffffffffffffffffffffffff1660008054906101000a900473ffffffffffffffffffffffffffffffffffffffff1673ffffffffffffffffffffffffffffffffffffffff161461086f576040517f08c379a00000000000000000000000000000000000000000000000000000000081526004016108669061256a565b60405180910390fd5b600073ffffffffffffffffffffffffffffffffffffffff1660008054906101000a900473ffffffffffffffffffffffffffffffffffffffff1673ffffffffffffffffffffffffffffffffffffffff167f8be0079c531659141344cd1fd0a4f28419497f9722a3daafe3b4186f6b6457e060405160405180910390a360008060006101000a81548173ffffffffffffffffffffffffffffffffffffffff021916908373ffffffffffffffffffffffffffffffffffffffff160217905550565b600061093761093c565b905090565b60008060009054906101000a900473ffffffffffffffffffffffffffffffffffffffff16905090565b6060600680546109749061239e565b80601f01602080910402602001604051908101604052809291908181526020018280546109a09061239e565b80156109ed5780601f106109c2576101008083540402835291602001916109ed565b820191906000526020600020905b8154815290600101906020018083116109d057829003601f168201915b5050505050905090565b60003373ffffffffffffffffffffffffffffffffffffffff1660008054906101000a900473ffffffffffffffffffffffffffffffffffffffff1673ffffffffffffffffffffffffffffffffffffffff1614610a87576040517f08c379a0000000000000000000000000000000000000000000000000000000008152600401610a7e9061256a565b60405180910390fd5b610a91838361155d565b6001905092915050565b6000610b2f338484600960003373ffffffffffffffffffffffffffffffffffffffff1673ffffffffffffffffffffffffffffffffffffffff16815260200190815260200160002060008873ffffffffffffffffffffffffffffffffffffffff1673ffffffffffffffffffffffffffffffffffffffff16815260200190815260200160002054610b2a9190612490565b610f33565b6001905092915050565b600860003373ffffffffffffffffffffffffffffffffffffffff1673ffffffffffffffffffffffffffffffffffffffff16815260200190815260200160002054811115610bbb576040517f08c379a0000000000000000000000000000000000000000000000000000000008152600401610bb2906125fc565b60405180910390fd5b610bc48161175a565b610bce338261155d565b50565b6000610bde3384846110fc565b6001905092915050565b6000600960008473ffffffffffffffffffffffffffffffffffffffff1673ffffffffffffffffffffffffffffffffffffffff16815260200190815260200160002060008373ffffffffffffffffffffffffffffffffffffffff1673ffffffffffffffffffffffffffffffffffffffff16815260200190815260200160002054905092915050565b610c77611e5b565b6000806040518060400160405280600081526020016002600360008873ffffffffffffffffffffffffffffffffffffffff1673ffffffffffffffffffffffffffffffffffffffff1681526020019081526020016000205481548110610cdf57610cde61261c565b5b9060005260206000209060020201600101805480602002602001604051908101604052809291908181526020016000905b82821015610db657838290600052602060002090600402016040518060800160405290816000820160009054906101000a900473ffffffffffffffffffffffffffffffffffffffff1673ffffffffffffffffffffffffffffffffffffffff1673ffffffffffffffffffffffffffffffffffffffff168152602001600182015481526020016002820154815260200160038201548152505081526020019060010190610d10565b50505050815250905060005b816020015151811015610e67576000610df883602001518381518110610deb57610dea61261c565b5b602002602001015161193e565b90508083602001518381518110610e1257610e1161261c565b5b6020026020010151606001818152505082602001518281518110610e3957610e3861261c565b5b60200260200101516020015184610e5091906124c4565b935050600181610e6091906124c4565b9050610dc2565b50818160000181815250508092505050919050565b6000610e888383611980565b9050610e9433826113e2565b505050565b3373ffffffffffffffffffffffffffffffffffffffff1660008054906101000a900473ffffffffffffffffffffffffffffffffffffffff1673ffffffffffffffffffffffffffffffffffffffff1614610f27576040517f08c379a0000000000000000000000000000000000000000000000000000000008152600401610f1e9061256a565b60405180910390fd5b610f3081611c48565b50565b600073ffffffffffffffffffffffffffffffffffffffff168373ffffffffffffffffffffffffffffffffffffffff1603610fa2576040517f08c379a0000000000000000000000000000000000000000000000000000000008152600401610f99906126bd565b60405180910390fd5b600073ffffffffffffffffffffffffffffffffffffffff168273ffffffffffffffffffffffffffffffffffffffff1603611011576040517f08c379a00000000000000000000000000000000000000000000000000000000081526004016110089061274f565b60405180910390fd5b80600960008573ffffffffffffffffffffffffffffffffffffffff1673ffffffffffffffffffffffffffffffffffffffff16815260200190815260200160002060008473ffffffffffffffffffffffffffffffffffffffff1673ffffffffffffffffffffffffffffffffffffffff168152602001908152602001600020819055508173ffffffffffffffffffffffffffffffffffffffff168373ffffffffffffffffffffffffffffffffffffffff167f8c5be1e5ebec7d5bd14f71427d1e84f3dd0314c0f7b2291e5b200ac8c7c3b925836040516110ef9190612045565b60405180910390a3505050565b600073ffffffffffffffffffffffffffffffffffffffff168373ffffffffffffffffffffffffffffffffffffffff160361116b576040517f08c379a0000000000000000000000000000000000000000000000000000000008152600401611162906127e1565b60405180910390fd5b600073ffffffffffffffffffffffffffffffffffffffff168273ffffffffffffffffffffffffffffffffffffffff16036111da576040517f08c379a00000000000000000000000000000000000000000000000000000000081526004016111d190612873565b60405180910390fd5b80600860008573ffffffffffffffffffffffffffffffffffffffff1673ffffffffffffffffffffffffffffffffffffffff16815260200190815260200160002054101561125c576040517f08c379a000000000000000000000000000000000000000000000000000000000815260040161125390612905565b60405180910390fd5b80600860008573ffffffffffffffffffffffffffffffffffffffff1673ffffffffffffffffffffffffffffffffffffffff168152602001908152602001600020546112a79190612490565b600860008573ffffffffffffffffffffffffffffffffffffffff1673ffffffffffffffffffffffffffffffffffffffff1681526020019081526020016000208190555080600860008473ffffffffffffffffffffffffffffffffffffffff1673ffffffffffffffffffffffffffffffffffffffff1681526020019081526020016000205461133591906124c4565b600860008473ffffffffffffffffffffffffffffffffffffffff1673ffffffffffffffffffffffffffffffffffffffff168152602001908152602001600020819055508173ffffffffffffffffffffffffffffffffffffffff168373ffffffffffffffffffffffffffffffffffffffff167fddf252ad1be2c89b69c2b068fc378daa952ba7f163c4a11628f55a4df523b3ef836040516113d59190612045565b60405180910390a3505050565b600073ffffffffffffffffffffffffffffffffffffffff168273ffffffffffffffffffffffffffffffffffffffff1603611451576040517f08c379a000000000000000000000000000000000000000000000000000000000815260040161144890612997565b60405180910390fd5b8060045461145f91906124c4565b60048190555080600860008473ffffffffffffffffffffffffffffffffffffffff1673ffffffffffffffffffffffffffffffffffffffff168152602001908152602001600020546114b091906124c4565b600860008473ffffffffffffffffffffffffffffffffffffffff1673ffffffffffffffffffffffffffffffffffffffff168152602001908152602001600020819055508173ffffffffffffffffffffffffffffffffffffffff16600073ffffffffffffffffffffffffffffffffffffffff167fddf252ad1be2c89b69c2b068fc378daa952ba7f163c4a11628f55a4df523b3ef836040516115519190612045565b60405180910390a35050565b600073ffffffffffffffffffffffffffffffffffffffff168273ffffffffffffffffffffffffffffffffffffffff16036115cc576040517f08c379a00000000000000000000000000000000000000000000000000000000081526004016115c390612a29565b60405180910390fd5b80600860008473ffffffffffffffffffffffffffffffffffffffff1673ffffffffffffffffffffffffffffffffffffffff16815260200190815260200160002054101561164e576040517f08c379a000000000000000000000000000000000000000000000000000000000815260040161164590612abb565b60405180910390fd5b80600860008473ffffffffffffffffffffffffffffffffffffffff1673ffffffffffffffffffffffffffffffffffffffff168152602001908152602001600020546116999190612490565b600860008473ffffffffffffffffffffffffffffffffffffffff1673ffffffffffffffffffffffffffffffffffffffff16815260200190815260200160002081905550806004546116ea9190612490565b600481905550600073ffffffffffffffffffffffffffffffffffffffff168273ffffffffffffffffffffffffffffffffffffffff167fddf252ad1be2c89b69c2b068fc378daa952ba7f163c4a11628f55a4df523b3ef8360405161174e9190612045565b60405180910390a35050565b6000811161179d576040517f08c379a000000000000000000000000000000000000000000000000000000000815260040161179490612b27565b60405180910390fd5b6000600360003373ffffffffffffffffffffffffffffffffffffffff1673ffffffffffffffffffffffffffffffffffffffff1681526020019081526020016000205490506000429050600082036117fa576117f733611d74565b91505b6002828154811061180e5761180d61261c565b5b906000526020600020906002020160010160405180608001604052803373ffffffffffffffffffffffffffffffffffffffff1681526020018581526020018381526020016000815250908060018154018082558091505060019003906000526020600020906004020160009091909190915060008201518160000160006101000a81548173ffffffffffffffffffffffffffffffffffffffff021916908373ffffffffffffffffffffffffffffffffffffffff16021790555060208201518160010155604082015181600201556060820151816003015550503373ffffffffffffffffffffffffffffffffffffffff167fb4caaf29adda3eefee3ad552a8e85058589bf834c7466cae4ee58787f70589ed84848460405161193193929190612b47565b60405180910390a2505050565b60006001548260200151610e1084604001514261195b9190612490565b6119659190612bad565b61196f9190612bde565b6119799190612bad565b9050919050565b600080600360003373ffffffffffffffffffffffffffffffffffffffff1673ffffffffffffffffffffffffffffffffffffffff1681526020019081526020016000205490506000600282815481106119db576119da61261c565b5b906000526020600020906002020160010184815481106119fe576119fd61261c565b5b90600052602060002090600402016040518060800160405290816000820160009054906101000a900473ffffffffffffffffffffffffffffffffffffffff1673ffffffffffffffffffffffffffffffffffffffff1673ffffffffffffffffffffffffffffffffffffffff168152602001600182015481526020016002820154815260200160038201548152505090508481602001511015611ad4576040517f08c379a0000000000000000000000000000000000000000000000000000000008152600401611acb90612c92565b60405180910390fd5b6000611adf8261193e565b9050858260200151611af19190612490565b8260200181815250506000826020015103611b925760028381548110611b1a57611b1961261c565b5b90600052602060002090600202016001018581548110611b3d57611b3c61261c565b5b9060005260206000209060040201600080820160006101000a81549073ffffffffffffffffffffffffffffffffffffffff02191690556001820160009055600282016000905560038201600090555050611c31565b816020015160028481548110611bab57611baa61261c565b5b90600052602060002090600202016001018681548110611bce57611bcd61261c565b5b9060005260206000209060040201600101819055504260028481548110611bf857611bf761261c565b5b90600052602060002090600202016001018681548110611c1b57611c1a61261c565b5b9060005260206000209060040201600201819055505b8086611c3d91906124c4565b935050505092915050565b600073ffffffffffffffffffffffffffffffffffffffff168173ffffffffffffffffffffffffffffffffffffffff1603611cb7576040517f08c379a0000000000000000000000000000000000000000000000000000000008152600401611cae90612d24565b60405180910390fd5b8073ffffffffffffffffffffffffffffffffffffffff1660008054906101000a900473ffffffffffffffffffffffffffffffffffffffff1673ffffffffffffffffffffffffffffffffffffffff167f8be0079c531659141344cd1fd0a4f28419497f9722a3daafe3b4186f6b6457e060405160405180910390a3806000806101000a81548173ffffffffffffffffffffffffffffffffffffffff021916908373ffffffffffffffffffffffffffffffffffffffff16021790555050565b600060026001816001815401808255809150500390600052602060002090505060006001600280549050611da89190612490565b90508260028281548110611dbf57611dbe61261c565b5b906000526020600020906002020160000160006101000a81548173ffffffffffffffffffffffffffffffffffffffff021916908373ffffffffffffffffffffffffffffffffffffffff16021790555080600360008573ffffffffffffffffffffffffffffffffffffffff1673ffffffffffffffffffffffffffffffffffffffff1681526020019081526020016000208190555080915050919050565b604051806040016040528060008152602001606081525090565b600081519050919050565b600082825260208201905092915050565b60005b83811015611eaf578082015181840152602081019050611e94565b60008484015250505050565b6000601f19601f8301169050919050565b6000611ed782611e75565b611ee18185611e80565b9350611ef1818560208601611e91565b611efa81611ebb565b840191505092915050565b60006020820190508181036000830152611f1f8184611ecc565b905092915050565b600080fd5b600073ffffffffffffffffffffffffffffffffffffffff82169050919050565b6000611f5782611f2c565b9050919050565b611f6781611f4c565b8114611f7257600080fd5b50565b600081359050611f8481611f5e565b92915050565b6000819050919050565b611f9d81611f8a565b8114611fa857600080fd5b50565b600081359050611fba81611f94565b92915050565b60008060408385031215611fd757611fd6611f27565b5b6000611fe585828601611f75565b9250506020611ff685828601611fab565b9150509250929050565b60008115159050919050565b61201581612000565b82525050565b6000602082019050612030600083018461200c565b92915050565b61203f81611f8a565b82525050565b600060208201905061205a6000830184612036565b92915050565b60008060006060848603121561207957612078611f27565b5b600061208786828701611f75565b935050602061209886828701611f75565b92505060406120a986828701611fab565b9150509250925092565b600060ff82169050919050565b6120c9816120b3565b82525050565b60006020820190506120e460008301846120c0565b92915050565b600060208284031215612100576120ff611f27565b5b600061210e84828501611f75565b91505092915050565b61212081611f4c565b82525050565b600060208201905061213b6000830184612117565b92915050565b60006020828403121561215757612156611f27565b5b600061216584828501611fab565b91505092915050565b6000806040838503121561218557612184611f27565b5b600061219385828601611f75565b92505060206121a485828601611f75565b9150509250929050565b6121b781611f8a565b82525050565b600081519050919050565b600082825260208201905092915050565b6000819050602082019050919050565b6121f281611f4c565b82525050565b60808201600082015161220e60008501826121e9565b50602082015161222160208501826121ae565b50604082015161223460408501826121ae565b50606082015161224760608501826121ae565b50505050565b600061225983836121f8565b60808301905092915050565b6000602082019050919050565b600061227d826121bd565b61228781856121c8565b9350612292836121d9565b8060005b838110156122c35781516122aa888261224d565b97506122b583612265565b925050600181019050612296565b5085935050505092915050565b60006040830160008301516122e860008601826121ae565b50602083015184820360208601526123008282612272565b9150508091505092915050565b6000602082019050818103600083015261232781846122d0565b905092915050565b6000806040838503121561234657612345611f27565b5b600061235485828601611fab565b925050602061236585828601611fab565b9150509250929050565b7f4e487b7100000000000000000000000000000000000000000000000000000000600052602260045260246000fd5b600060028204905060018216806123b657607f821691505b6020821081036123c9576123c861236f565b5b50919050565b7f46697665546f6b656e3a20596f752063616e6e6f74207370656e64207468617460008201527f206d756368206f6e2074686973206163636f756e740000000000000000000000602082015250565b600061242b603583611e80565b9150612436826123cf565b604082019050919050565b6000602082019050818103600083015261245a8161241e565b9050919050565b7f4e487b7100000000000000000000000000000000000000000000000000000000600052601160045260246000fd5b600061249b82611f8a565b91506124a683611f8a565b92508282039050818111156124be576124bd612461565b5b92915050565b60006124cf82611f8a565b91506124da83611f8a565b92508282019050808211156124f2576124f1612461565b5b92915050565b7f4f776e61626c653a206f6e6c79206f776e65722063616e2063616c6c2074686960008201527f732066756e6374696f6e00000000000000000000000000000000000000000000602082015250565b6000612554602a83611e80565b915061255f826124f8565b604082019050919050565b6000602082019050818103600083015261258381612547565b9050919050565b7f46697665546f6b656e3a2043616e6e6f74207374616b65206d6f72652074686160008201527f6e20796f75206f776e0000000000000000000000000000000000000000000000602082015250565b60006125e6602983611e80565b91506125f18261258a565b604082019050919050565b60006020820190508181036000830152612615816125d9565b9050919050565b7f4e487b7100000000000000000000000000000000000000000000000000000000600052603260045260246000fd5b7f46697665546f6b656e3a20617070726f76652063616e6e6f7420626520646f6e60008201527f652066726f6d207a65726f206164647265737300000000000000000000000000602082015250565b60006126a7603383611e80565b91506126b28261264b565b604082019050919050565b600060208201905081810360008301526126d68161269a565b9050919050565b7f46697665546f6b656e3a20617070726f76652063616e6e6f7420626520746f2060008201527f7a65726f20616464726573730000000000000000000000000000000000000000602082015250565b6000612739602c83611e80565b9150612744826126dd565b604082019050919050565b600060208201905081810360008301526127688161272c565b9050919050565b7f46697665546f6b656e3a207472616e736665722066726f6d207a65726f20616460008201527f6472657373000000000000000000000000000000000000000000000000000000602082015250565b60006127cb602583611e80565b91506127d68261276f565b604082019050919050565b600060208201905081810360008301526127fa816127be565b9050919050565b7f46697665546f6b656e3a207472616e7366657220746f207a65726f206164647260008201527f6573730000000000000000000000000000000000000000000000000000000000602082015250565b600061285d602383611e80565b915061286882612801565b604082019050919050565b6000602082019050818103600083015261288c81612850565b9050919050565b7f46697665546f6b656e3a2063616e74207472616e73666572206d6f726520746860008201527f616e20796f7572206163636f756e7420686f6c64730000000000000000000000602082015250565b60006128ef603583611e80565b91506128fa82612893565b604082019050919050565b6000602082019050818103600083015261291e816128e2565b9050919050565b7f46697665546f6b656e3a2063616e6e6f74206d696e7420746f207a65726f206160008201527f6464726573730000000000000000000000000000000000000000000000000000602082015250565b6000612981602683611e80565b915061298c82612925565b604082019050919050565b600060208201905081810360008301526129b081612974565b9050919050565b7f46697665546f6b656e3a2063616e6e6f74206275726e2066726f6d207a65726f60008201527f2061646472657373000000000000000000000000000000000000000000000000602082015250565b6000612a13602883611e80565b9150612a1e826129b7565b604082019050919050565b60006020820190508181036000830152612a4281612a06565b9050919050565b7f46697665546f6b656e3a2043616e6e6f74206275726e206d6f7265207468616e60008201527f20746865206163636f756e74206f776e73000000000000000000000000000000602082015250565b6000612aa5603183611e80565b9150612ab082612a49565b604082019050919050565b60006020820190508181036000830152612ad481612a98565b9050919050565b7f43616e6e6f74207374616b652061203020616d6f756e74000000000000000000600082015250565b6000612b11601783611e80565b9150612b1c82612adb565b602082019050919050565b60006020820190508181036000830152612b4081612b04565b9050919050565b6000606082019050612b5c6000830186612036565b612b696020830185612036565b612b766040830184612036565b949350505050565b7f4e487b7100000000000000000000000000000000000000000000000000000000600052601260045260246000fd5b6000612bb882611f8a565b9150612bc383611f8a565b925082612bd357612bd2612b7e565b5b828204905092915050565b6000612be982611f8a565b9150612bf483611f8a565b9250828202612c0281611f8a565b91508282048414831517612c1957612c18612461565b5b5092915050565b7f5374616b696e673a2043616e6e6f74207769746864726177206d6f726520746860008201527f616e20796f752068617665207374616b65640000000000000000000000000000602082015250565b6000612c7c603283611e80565b9150612c8782612c20565b604082019050919050565b60006020820190508181036000830152612cab81612c6f565b9050919050565b7f4f776e61626c653a206e6577206f776e657220697320746865207a65726f206160008201527f6464726573730000000000000000000000000000000000000000000000000000602082015250565b6000612d0e602683611e80565b9150612d1982612cb2565b604082019050919050565b60006020820190508181036000830152612d3d81612d01565b905091905056fea2646970667358221220329441f0f7b5737ab0e2c43abe9f697966f1b3bf1ee0cca89220cc48dbb10d4064736f6c63430008130033",
  "immutableReferences": {},
  "source": "// SPDX-License-Identifier: MIT\npragma solidity >0.4.0 <= 0.8.19;\n\nimport \"./Ownable.sol\";\nimport \"./Stakeable.sol\";\n\ncontract FiveToken is Ownable, Stakeable {\n    uint256 private _totalSupply;\n    uint8 private _decimals;\n    string private _symbol;\n    string private _name;\n    \n    mapping (address => uint256) private _balances;\n    mapping (address => mapping (address => uint256)) private _allowances;\n\n    event Transfer(address indexed from, address indexed to, uint256 value);\n    event Approval(address indexed owner, address indexed spender, uint256 value);\n\n    constructor(string memory token_name, string memory ticker, uint8 token_decimals, uint256 token_totalSupply){\n        uint256 _initialSupply = token_totalSupply * (10 ** token_decimals); // 5 000 000 000 * (10^18)\n        \n        _name = token_name;\n        _symbol = ticker;\n        _decimals = token_decimals;\n        _totalSupply = _initialSupply;\n\n        _balances[msg.sender] = _totalSupply;\n\n        emit Transfer(address(0), msg.sender, _totalSupply);\n    }\n\n\n    /* ---------------------------internal methods---------------------------------------  */\n\n    function _transfer(address sender, address recipient, uint256 amount) internal {\n        require(sender != address(0), \"FiveToken: transfer from zero address\");\n        require(recipient != address(0), \"FiveToken: transfer to zero address\");\n        require(_balances[sender] >= amount, \"FiveToken: cant transfer more than your account holds\");\n\n        _balances[sender] = _balances[sender] - amount;\n        _balances[recipient] = _balances[recipient] + amount;\n\n        emit Transfer(sender, recipient, amount);\n    }\n\n    function _mint(address account, uint256 amount) internal {\n        require(account != address(0), \"FiveToken: cannot mint to zero address\");\n\n        _totalSupply = _totalSupply + amount;\n        _balances[account] = _balances[account] + amount;\n\n        emit Transfer(address(0), account, amount);\n    }\n\n    function _burn(address account, uint256 amount) internal {\n        require(account != address(0), \"FiveToken: cannot burn from zero address\");\n        require(_balances[account] >= amount, \"FiveToken: Cannot burn more than the account owns\");\n\n        _balances[account] = _balances[account] - amount;\n        _totalSupply = _totalSupply - amount;\n\n        emit Transfer(account, address(0), amount);\n    }\n\n    function _approve(address owner, address spender, uint256 amount) internal {\n        require(owner != address(0), \"FiveToken: approve cannot be done from zero address\");\n        require(spender != address(0), \"FiveToken: approve cannot be to zero address\");\n\n        _allowances[owner][spender] = amount;\n\n        emit Approval(owner,spender,amount);\n    }\n\n\n    /* ---------------------------Getters (view)---------------------------------------  */\n\n    function decimals() external view returns (uint8) {\n        return _decimals;\n    }\n\n    function symbol() external view returns (string memory) {\n        return _symbol;\n    }\n\n    function name() external view returns (string memory) {\n        return _name;\n    }\n\n    function totalSupply() external view returns (uint256){\n        return _totalSupply;\n    }\n\n    function getOwner() external view returns (address) {\n        return owner();\n    }\n\n    function balanceOf(address account) external view returns (uint256) {\n        return _balances[account];\n    } \n\n    function allowance(address owner, address spender) external view returns(uint256){\n        return _allowances[owner][spender];\n    }\n\n    /* --------------------public & external Methods-------------  */\n    \n    // @onlyOwner\n    function burn(address account, uint256 amount) public onlyOwner returns (bool) {\n        _burn(account, amount);\n        return true;\n    }\n\n    // @onlyOwner\n    function mint(address account, uint256 amount) public onlyOwner returns (bool) {\n        _mint(account, amount);\n        return true;\n    }\n\n    function increaseAllowance(address spender, uint256 amount) public returns (bool) {\n        _approve(msg.sender, spender, _allowances[msg.sender][spender]+amount);\n        return true;\n    }\n \n    function decreaseAllowance(address spender, uint256 amount) public returns (bool) {\n        _approve(msg.sender, spender, _allowances[msg.sender][spender]-amount);\n        return true;\n    }\n\n    function withdrawStake(uint256 amount, uint256 stake_index)  public {\n\n      uint256 amount_to_mint = _withdrawStake(amount, stake_index);\n      _mint(msg.sender, amount_to_mint);\n    }\n\n    function transfer(address recipient, uint256 amount) external returns (bool) {\n        _transfer(msg.sender, recipient, amount);\n        return true;\n    }\n\n    function stake(uint256 amount) public {\n        require(amount <= _balances[msg.sender], \"FiveToken: Cannot stake more than you own\");\n\n        _stake(amount);\n        _burn(msg.sender, amount);\n    }\n\n    function transferFrom(address spender, address recipient, uint256 amount) external returns(bool){\n        require(_allowances[spender][msg.sender] >= amount, \"FiveToken: You cannot spend that much on this account\");\n        _transfer(spender, recipient, amount);\n        _approve(spender, msg.sender, _allowances[spender][msg.sender] - amount);\n        return true;\n    }\n    \n    function approve(address spender, uint256 amount) external returns (bool) {\n        _approve(msg.sender, spender, amount);\n        return true;\n    }\n}\n\n/* [KEYWORDS]\n     `address` : solidity base type to identify [transactions recipients] or [contract owner]\n     `payable` : the address can receive ETH / BNB\n     `event`   : external clients can subscribe and listen to it, [log/notification mechanism]\n     `indexed` : the parameter can be used as a filter to a search\n     `view`    : getter-only functions, no gas cost\n     `external`: can be used ONLY from external\n     `public`  : internal + external, use more gas than external\n*/\n\n/*\ninterface IBEP20 {\n\n  function totalSupply() external view returns (uint256);\n  function decimals() external view returns (uint8);\n  function symbol() external view returns (string memory);\n  function name() external view returns (string memory);\n  function getOwner() external view returns (address);\n  function balanceOf(address account) external view returns (uint256);\n  function transfer(address recipient, uint256 amount) external returns (bool);\n  function allowance(address _owner, address spender) external view returns (uint256);\n  function approve(address spender, uint256 amount) external returns (bool);\n  function transferFrom(address sender, address recipient, uint256 amount) external returns (bool);\n\n  event Transfer(address indexed from, address indexed to, uint256 value);\n  event Approval(address indexed owner, address indexed spender, uint256 value);\n}\n*/",
  "sourcePath": "/usr/src/app/contracts/FiveToken.sol",
  "compiler": {
    "name": "solc",
    "version": "0.8.19+commit.7dd6d404.Emscripten.clang"
  },
  "schemaVersion": "3.4.16",
  "updatedAt": "2024-03-26T11:13:50.000Z",
  "networkType": "ethereum",
  "devdoc": {
    "kind": "dev",
    "methods": {},
    "version": 1
  },
  "userdoc": {
    "kind": "user",
    "methods": {},
    "version": 1
  }
}