{
  "contractName": "FiveToken",
  "abi": [
    {
      "inputs": [
        {
          "internalType": "string",
          "name": "token_name",
          "type": "string"
        },
        {
          "internalType": "string",
          "name": "ticker",
          "type": "string"
        },
        {
          "internalType": "uint8",
          "name": "token_decimals",
          "type": "uint8"
        },
        {
          "internalType": "uint256",
          "name": "token_totalSupply",
          "type": "uint256"
        }
      ],
      "stateMutability": "nonpayable",
      "type": "constructor"
    },
    {
      "anonymous": false,
      "inputs": [
        {
          "indexed": true,
          "internalType": "address",
          "name": "owner",
          "type": "address"
        },
        {
          "indexed": true,
          "internalType": "address",
          "name": "spender",
          "type": "address"
        },
        {
          "indexed": false,
          "internalType": "uint256",
          "name": "value",
          "type": "uint256"
        }
      ],
      "name": "Approval",
      "type": "event"
    },
    {
      "anonymous": false,
      "inputs": [
        {
          "indexed": true,
          "internalType": "address",
          "name": "previousOwner",
          "type": "address"
        },
        {
          "indexed": true,
          "internalType": "address",
          "name": "newOwner",
          "type": "address"
        }
      ],
      "name": "OwnershipTransferred",
      "type": "event"
    },
    {
      "anonymous": false,
      "inputs": [
        {
          "indexed": true,
          "internalType": "address",
          "name": "from",
          "type": "address"
        },
        {
          "indexed": true,
          "internalType": "address",
          "name": "to",
          "type": "address"
        },
        {
          "indexed": false,
          "internalType": "uint256",
          "name": "value",
          "type": "uint256"
        }
      ],
      "name": "Transfer",
      "type": "event"
    },
    {
      "inputs": [],
      "name": "owner",
      "outputs": [
        {
          "internalType": "address",
          "name": "",
          "type": "address"
        }
      ],
      "stateMutability": "view",
      "type": "function",
      "constant": true
    },
    {
      "inputs": [],
      "name": "renounceOwnership",
      "outputs": [],
      "stateMutability": "nonpayable",
      "type": "function"
    },
    {
      "inputs": [
        {
          "internalType": "address",
          "name": "newOwner",
          "type": "address"
        }
      ],
      "name": "transferOwnership",
      "outputs": [],
      "stateMutability": "nonpayable",
      "type": "function"
    },
    {
      "inputs": [],
      "name": "decimals",
      "outputs": [
        {
          "internalType": "uint8",
          "name": "",
          "type": "uint8"
        }
      ],
      "stateMutability": "view",
      "type": "function",
      "constant": true
    },
    {
      "inputs": [],
      "name": "symbol",
      "outputs": [
        {
          "internalType": "string",
          "name": "",
          "type": "string"
        }
      ],
      "stateMutability": "view",
      "type": "function",
      "constant": true
    },
    {
      "inputs": [],
      "name": "name",
      "outputs": [
        {
          "internalType": "string",
          "name": "",
          "type": "string"
        }
      ],
      "stateMutability": "view",
      "type": "function",
      "constant": true
    },
    {
      "inputs": [],
      "name": "totalSupply",
      "outputs": [
        {
          "internalType": "uint256",
          "name": "",
          "type": "uint256"
        }
      ],
      "stateMutability": "view",
      "type": "function",
      "constant": true
    },
    {
      "inputs": [],
      "name": "getOwner",
      "outputs": [
        {
          "internalType": "address",
          "name": "",
          "type": "address"
        }
      ],
      "stateMutability": "view",
      "type": "function",
      "constant": true
    },
    {
      "inputs": [
        {
          "internalType": "address",
          "name": "account",
          "type": "address"
        }
      ],
      "name": "balanceOf",
      "outputs": [
        {
          "internalType": "uint256",
          "name": "",
          "type": "uint256"
        }
      ],
      "stateMutability": "view",
      "type": "function",
      "constant": true
    },
    {
      "inputs": [
        {
          "internalType": "address",
          "name": "owner",
          "type": "address"
        },
        {
          "internalType": "address",
          "name": "spender",
          "type": "address"
        }
      ],
      "name": "allowance",
      "outputs": [
        {
          "internalType": "uint256",
          "name": "",
          "type": "uint256"
        }
      ],
      "stateMutability": "view",
      "type": "function",
      "constant": true
    },
    {
      "inputs": [
        {
          "internalType": "address",
          "name": "account",
          "type": "address"
        },
        {
          "internalType": "uint256",
          "name": "amount",
          "type": "uint256"
        }
      ],
      "name": "burn",
      "outputs": [
        {
          "internalType": "bool",
          "name": "",
          "type": "bool"
        }
      ],
      "stateMutability": "nonpayable",
      "type": "function"
    },
    {
      "inputs": [
        {
          "internalType": "address",
          "name": "account",
          "type": "address"
        },
        {
          "internalType": "uint256",
          "name": "amount",
          "type": "uint256"
        }
      ],
      "name": "mint",
      "outputs": [
        {
          "internalType": "bool",
          "name": "",
          "type": "bool"
        }
      ],
      "stateMutability": "nonpayable",
      "type": "function"
    },
    {
      "inputs": [
        {
          "internalType": "address",
          "name": "spender",
          "type": "address"
        },
        {
          "internalType": "uint256",
          "name": "amount",
          "type": "uint256"
        }
      ],
      "name": "increaseAllowance",
      "outputs": [
        {
          "internalType": "bool",
          "name": "",
          "type": "bool"
        }
      ],
      "stateMutability": "nonpayable",
      "type": "function"
    },
    {
      "inputs": [
        {
          "internalType": "address",
          "name": "spender",
          "type": "address"
        },
        {
          "internalType": "uint256",
          "name": "amount",
          "type": "uint256"
        }
      ],
      "name": "decreaseAllowance",
      "outputs": [
        {
          "internalType": "bool",
          "name": "",
          "type": "bool"
        }
      ],
      "stateMutability": "nonpayable",
      "type": "function"
    },
    {
      "inputs": [
        {
          "internalType": "address",
          "name": "recipient",
          "type": "address"
        },
        {
          "internalType": "uint256",
          "name": "amount",
          "type": "uint256"
        }
      ],
      "name": "transfer",
      "outputs": [
        {
          "internalType": "bool",
          "name": "",
          "type": "bool"
        }
      ],
      "stateMutability": "nonpayable",
      "type": "function"
    },
    {
      "inputs": [
        {
          "internalType": "address",
          "name": "spender",
          "type": "address"
        },
        {
          "internalType": "address",
          "name": "recipient",
          "type": "address"
        },
        {
          "internalType": "uint256",
          "name": "amount",
          "type": "uint256"
        }
      ],
      "name": "transferFrom",
      "outputs": [
        {
          "internalType": "bool",
          "name": "",
          "type": "bool"
        }
      ],
      "stateMutability": "nonpayable",
      "type": "function"
    },
    {
      "inputs": [
        {
          "internalType": "address",
          "name": "spender",
          "type": "address"
        },
        {
          "internalType": "uint256",
          "name": "amount",
          "type": "uint256"
        }
      ],
      "name": "approve",
      "outputs": [
        {
          "internalType": "bool",
          "name": "",
          "type": "bool"
        }
      ],
      "stateMutability": "nonpayable",
      "type": "function"
    }
  ],
  "bytecode": "0x608060405234801562000010575f80fd5b50604051620026ed380380620026ed8339818101604052810190620000369190620003e7565b335f806101000a81548173ffffffffffffffffffffffffffffffffffffffff021916908373ffffffffffffffffffffffffffffffffffffffff1602179055505f8054906101000a900473ffffffffffffffffffffffffffffffffffffffff1673ffffffffffffffffffffffffffffffffffffffff165f73ffffffffffffffffffffffffffffffffffffffff167f8be0079c531659141344cd1fd0a4f28419497f9722a3daafe3b4186f6b6457e060405160405180910390a35f8190508460049081620001039190620006c2565b508360039081620001159190620006c2565b508260025f6101000a81548160ff021916908360ff1602179055508060018190555060015460055f3373ffffffffffffffffffffffffffffffffffffffff1673ffffffffffffffffffffffffffffffffffffffff1681526020019081526020015f20819055503373ffffffffffffffffffffffffffffffffffffffff165f73ffffffffffffffffffffffffffffffffffffffff167fddf252ad1be2c89b69c2b068fc378daa952ba7f163c4a11628f55a4df523b3ef600154604051620001dc9190620007b7565b60405180910390a35050505050620007d2565b5f604051905090565b5f80fd5b5f80fd5b5f80fd5b5f80fd5b5f601f19601f8301169050919050565b7f4e487b71000000000000000000000000000000000000000000000000000000005f52604160045260245ffd5b620002508262000208565b810181811067ffffffffffffffff8211171562000272576200027162000218565b5b80604052505050565b5f62000286620001ef565b905062000294828262000245565b919050565b5f67ffffffffffffffff821115620002b657620002b562000218565b5b620002c18262000208565b9050602081019050919050565b5f5b83811015620002ed578082015181840152602081019050620002d0565b5f8484015250505050565b5f6200030e620003088462000299565b6200027b565b9050828152602081018484840111156200032d576200032c62000204565b5b6200033a848285620002ce565b509392505050565b5f82601f83011262000359576200035862000200565b5b81516200036b848260208601620002f8565b91505092915050565b5f60ff82169050919050565b6200038b8162000374565b811462000396575f80fd5b50565b5f81519050620003a98162000380565b92915050565b5f819050919050565b620003c381620003af565b8114620003ce575f80fd5b50565b5f81519050620003e181620003b8565b92915050565b5f805f8060808587031215620004025762000401620001f8565b5b5f85015167ffffffffffffffff811115620004225762000421620001fc565b5b620004308782880162000342565b945050602085015167ffffffffffffffff811115620004545762000453620001fc565b5b620004628782880162000342565b9350506040620004758782880162000399565b92505060606200048887828801620003d1565b91505092959194509250565b5f81519050919050565b7f4e487b71000000000000000000000000000000000000000000000000000000005f52602260045260245ffd5b5f6002820490506001821680620004e357607f821691505b602082108103620004f957620004f86200049e565b5b50919050565b5f819050815f5260205f209050919050565b5f6020601f8301049050919050565b5f82821b905092915050565b5f600883026200055d7fffffffffffffffffffffffffffffffffffffffffffffffffffffffffffffffff8262000520565b62000569868362000520565b95508019841693508086168417925050509392505050565b5f819050919050565b5f620005aa620005a46200059e84620003af565b62000581565b620003af565b9050919050565b5f819050919050565b620005c5836200058a565b620005dd620005d482620005b1565b8484546200052c565b825550505050565b5f90565b620005f3620005e5565b62000600818484620005ba565b505050565b5b8181101562000627576200061b5f82620005e9565b60018101905062000606565b5050565b601f82111562000676576200064081620004ff565b6200064b8462000511565b810160208510156200065b578190505b620006736200066a8562000511565b83018262000605565b50505b505050565b5f82821c905092915050565b5f620006985f19846008026200067b565b1980831691505092915050565b5f620006b2838362000687565b9150826002028217905092915050565b620006cd8262000494565b67ffffffffffffffff811115620006e957620006e862000218565b5b620006f58254620004cb565b620007028282856200062b565b5f60209050601f83116001811462000738575f841562000723578287015190505b6200072f8582620006a5565b8655506200079e565b601f1984166200074886620004ff565b5f5b8281101562000771578489015182556001820191506020850194506020810190506200074a565b868310156200079157848901516200078d601f89168262000687565b8355505b6001600288020188555050505b505050505050565b620007b181620003af565b82525050565b5f602082019050620007cc5f830184620007a6565b92915050565b611f0d80620007e05f395ff3fe608060405234801561000f575f80fd5b5060043610610109575f3560e01c8063715018a6116100a05780639dc29fac1161006f5780639dc29fac146102bb578063a457c2d7146102eb578063a9059cbb1461031b578063dd62ed3e1461034b578063f2fde38b1461037b57610109565b8063715018a614610257578063893d20e8146102615780638da5cb5b1461027f57806395d89b411461029d57610109565b8063313ce567116100dc578063313ce567146101a957806339509351146101c757806340c10f19146101f757806370a082311461022757610109565b806306fdde031461010d578063095ea7b31461012b57806318160ddd1461015b57806323b872dd14610179575b5f80fd5b610115610397565b604051610122919061156e565b60405180910390f35b6101456004803603810190610140919061161f565b610427565b6040516101529190611677565b60405180910390f35b61016361043d565b604051610170919061169f565b60405180910390f35b610193600480360381019061018e91906116b8565b610446565b6040516101a09190611677565b60405180910390f35b6101b16105a6565b6040516101be9190611723565b60405180910390f35b6101e160048036038101906101dc919061161f565b6105bb565b6040516101ee9190611677565b60405180910390f35b610211600480360381019061020c919061161f565b610654565b60405161021e9190611677565b60405180910390f35b610241600480360381019061023c919061173c565b6106f6565b60405161024e919061169f565b60405180910390f35b61025f61073c565b005b610269610883565b6040516102769190611776565b60405180910390f35b610287610891565b6040516102949190611776565b60405180910390f35b6102a56108b8565b6040516102b2919061156e565b60405180910390f35b6102d560048036038101906102d0919061161f565b610948565b6040516102e29190611677565b60405180910390f35b6103056004803603810190610300919061161f565b6109ea565b6040516103129190611677565b60405180910390f35b6103356004803603810190610330919061161f565b610a83565b6040516103429190611677565b60405180910390f35b6103656004803603810190610360919061178f565b610a99565b604051610372919061169f565b60405180910390f35b6103956004803603810190610390919061173c565b610b1b565b005b6060600480546103a6906117fa565b80601f01602080910402602001604051908101604052809291908181526020018280546103d2906117fa565b801561041d5780601f106103f45761010080835404028352916020019161041d565b820191905f5260205f20905b81548152906001019060200180831161040057829003601f168201915b5050505050905090565b5f610433338484610bb4565b6001905092915050565b5f600154905090565b5f8160065f8673ffffffffffffffffffffffffffffffffffffffff1673ffffffffffffffffffffffffffffffffffffffff1681526020019081526020015f205f3373ffffffffffffffffffffffffffffffffffffffff1673ffffffffffffffffffffffffffffffffffffffff1681526020019081526020015f20541015610502576040517f08c379a00000000000000000000000000000000000000000000000000000000081526004016104f99061189a565b60405180910390fd5b61050d848484610d77565b61059b84338460065f8973ffffffffffffffffffffffffffffffffffffffff1673ffffffffffffffffffffffffffffffffffffffff1681526020019081526020015f205f3373ffffffffffffffffffffffffffffffffffffffff1673ffffffffffffffffffffffffffffffffffffffff1681526020019081526020015f205461059691906118e5565b610bb4565b600190509392505050565b5f60025f9054906101000a900460ff16905090565b5f61064a33848460065f3373ffffffffffffffffffffffffffffffffffffffff1673ffffffffffffffffffffffffffffffffffffffff1681526020019081526020015f205f8873ffffffffffffffffffffffffffffffffffffffff1673ffffffffffffffffffffffffffffffffffffffff1681526020019081526020015f20546106459190611918565b610bb4565b6001905092915050565b5f3373ffffffffffffffffffffffffffffffffffffffff165f8054906101000a900473ffffffffffffffffffffffffffffffffffffffff1673ffffffffffffffffffffffffffffffffffffffff16146106e2576040517f08c379a00000000000000000000000000000000000000000000000000000000081526004016106d9906119bb565b60405180910390fd5b6106ec8383611051565b6001905092915050565b5f60055f8373ffffffffffffffffffffffffffffffffffffffff1673ffffffffffffffffffffffffffffffffffffffff1681526020019081526020015f20549050919050565b3373ffffffffffffffffffffffffffffffffffffffff165f8054906101000a900473ffffffffffffffffffffffffffffffffffffffff1673ffffffffffffffffffffffffffffffffffffffff16146107c9576040517f08c379a00000000000000000000000000000000000000000000000000000000081526004016107c0906119bb565b60405180910390fd5b5f73ffffffffffffffffffffffffffffffffffffffff165f8054906101000a900473ffffffffffffffffffffffffffffffffffffffff1673ffffffffffffffffffffffffffffffffffffffff167f8be0079c531659141344cd1fd0a4f28419497f9722a3daafe3b4186f6b6457e060405160405180910390a35f805f6101000a81548173ffffffffffffffffffffffffffffffffffffffff021916908373ffffffffffffffffffffffffffffffffffffffff160217905550565b5f61088c610891565b905090565b5f805f9054906101000a900473ffffffffffffffffffffffffffffffffffffffff16905090565b6060600380546108c7906117fa565b80601f01602080910402602001604051908101604052809291908181526020018280546108f3906117fa565b801561093e5780601f106109155761010080835404028352916020019161093e565b820191905f5260205f20905b81548152906001019060200180831161092157829003601f168201915b5050505050905090565b5f3373ffffffffffffffffffffffffffffffffffffffff165f8054906101000a900473ffffffffffffffffffffffffffffffffffffffff1673ffffffffffffffffffffffffffffffffffffffff16146109d6576040517f08c379a00000000000000000000000000000000000000000000000000000000081526004016109cd906119bb565b60405180910390fd5b6109e083836111c6565b6001905092915050565b5f610a7933848460065f3373ffffffffffffffffffffffffffffffffffffffff1673ffffffffffffffffffffffffffffffffffffffff1681526020019081526020015f205f8873ffffffffffffffffffffffffffffffffffffffff1673ffffffffffffffffffffffffffffffffffffffff1681526020019081526020015f2054610a7491906118e5565b610bb4565b6001905092915050565b5f610a8f338484610d77565b6001905092915050565b5f60065f8473ffffffffffffffffffffffffffffffffffffffff1673ffffffffffffffffffffffffffffffffffffffff1681526020019081526020015f205f8373ffffffffffffffffffffffffffffffffffffffff1673ffffffffffffffffffffffffffffffffffffffff1681526020019081526020015f2054905092915050565b3373ffffffffffffffffffffffffffffffffffffffff165f8054906101000a900473ffffffffffffffffffffffffffffffffffffffff1673ffffffffffffffffffffffffffffffffffffffff1614610ba8576040517f08c379a0000000000000000000000000000000000000000000000000000000008152600401610b9f906119bb565b60405180910390fd5b610bb1816113bb565b50565b5f73ffffffffffffffffffffffffffffffffffffffff168373ffffffffffffffffffffffffffffffffffffffff1603610c22576040517f08c379a0000000000000000000000000000000000000000000000000000000008152600401610c1990611a49565b60405180910390fd5b5f73ffffffffffffffffffffffffffffffffffffffff168273ffffffffffffffffffffffffffffffffffffffff1603610c90576040517f08c379a0000000000000000000000000000000000000000000000000000000008152600401610c8790611ad7565b60405180910390fd5b8060065f8573ffffffffffffffffffffffffffffffffffffffff1673ffffffffffffffffffffffffffffffffffffffff1681526020019081526020015f205f8473ffffffffffffffffffffffffffffffffffffffff1673ffffffffffffffffffffffffffffffffffffffff1681526020019081526020015f20819055508173ffffffffffffffffffffffffffffffffffffffff168373ffffffffffffffffffffffffffffffffffffffff167f8c5be1e5ebec7d5bd14f71427d1e84f3dd0314c0f7b2291e5b200ac8c7c3b92583604051610d6a919061169f565b60405180910390a3505050565b5f73ffffffffffffffffffffffffffffffffffffffff168373ffffffffffffffffffffffffffffffffffffffff1603610de5576040517f08c379a0000000000000000000000000000000000000000000000000000000008152600401610ddc90611b65565b60405180910390fd5b5f73ffffffffffffffffffffffffffffffffffffffff168273ffffffffffffffffffffffffffffffffffffffff1603610e53576040517f08c379a0000000000000000000000000000000000000000000000000000000008152600401610e4a90611bf3565b60405180910390fd5b8060055f8573ffffffffffffffffffffffffffffffffffffffff1673ffffffffffffffffffffffffffffffffffffffff1681526020019081526020015f20541015610ed3576040517f08c379a0000000000000000000000000000000000000000000000000000000008152600401610eca90611c81565b60405180910390fd5b8060055f8573ffffffffffffffffffffffffffffffffffffffff1673ffffffffffffffffffffffffffffffffffffffff1681526020019081526020015f2054610f1c91906118e5565b60055f8573ffffffffffffffffffffffffffffffffffffffff1673ffffffffffffffffffffffffffffffffffffffff1681526020019081526020015f20819055508060055f8473ffffffffffffffffffffffffffffffffffffffff1673ffffffffffffffffffffffffffffffffffffffff1681526020019081526020015f2054610fa69190611918565b60055f8473ffffffffffffffffffffffffffffffffffffffff1673ffffffffffffffffffffffffffffffffffffffff1681526020019081526020015f20819055508173ffffffffffffffffffffffffffffffffffffffff168373ffffffffffffffffffffffffffffffffffffffff167fddf252ad1be2c89b69c2b068fc378daa952ba7f163c4a11628f55a4df523b3ef83604051611044919061169f565b60405180910390a3505050565b5f73ffffffffffffffffffffffffffffffffffffffff168273ffffffffffffffffffffffffffffffffffffffff16036110bf576040517f08c379a00000000000000000000000000000000000000000000000000000000081526004016110b690611d0f565b60405180910390fd5b806001546110cd9190611918565b6001819055508060055f8473ffffffffffffffffffffffffffffffffffffffff1673ffffffffffffffffffffffffffffffffffffffff1681526020019081526020015f205461111c9190611918565b60055f8473ffffffffffffffffffffffffffffffffffffffff1673ffffffffffffffffffffffffffffffffffffffff1681526020019081526020015f20819055508173ffffffffffffffffffffffffffffffffffffffff165f73ffffffffffffffffffffffffffffffffffffffff167fddf252ad1be2c89b69c2b068fc378daa952ba7f163c4a11628f55a4df523b3ef836040516111ba919061169f565b60405180910390a35050565b5f73ffffffffffffffffffffffffffffffffffffffff168273ffffffffffffffffffffffffffffffffffffffff1603611234576040517f08c379a000000000000000000000000000000000000000000000000000000000815260040161122b90611d9d565b60405180910390fd5b8060055f8473ffffffffffffffffffffffffffffffffffffffff1673ffffffffffffffffffffffffffffffffffffffff1681526020019081526020015f205410156112b4576040517f08c379a00000000000000000000000000000000000000000000000000000000081526004016112ab90611e2b565b60405180910390fd5b8060055f8473ffffffffffffffffffffffffffffffffffffffff1673ffffffffffffffffffffffffffffffffffffffff1681526020019081526020015f20546112fd91906118e5565b60055f8473ffffffffffffffffffffffffffffffffffffffff1673ffffffffffffffffffffffffffffffffffffffff1681526020019081526020015f20819055508060015461134c91906118e5565b6001819055505f73ffffffffffffffffffffffffffffffffffffffff168273ffffffffffffffffffffffffffffffffffffffff167fddf252ad1be2c89b69c2b068fc378daa952ba7f163c4a11628f55a4df523b3ef836040516113af919061169f565b60405180910390a35050565b5f73ffffffffffffffffffffffffffffffffffffffff168173ffffffffffffffffffffffffffffffffffffffff1603611429576040517f08c379a000000000000000000000000000000000000000000000000000000000815260040161142090611eb9565b60405180910390fd5b8073ffffffffffffffffffffffffffffffffffffffff165f8054906101000a900473ffffffffffffffffffffffffffffffffffffffff1673ffffffffffffffffffffffffffffffffffffffff167f8be0079c531659141344cd1fd0a4f28419497f9722a3daafe3b4186f6b6457e060405160405180910390a3805f806101000a81548173ffffffffffffffffffffffffffffffffffffffff021916908373ffffffffffffffffffffffffffffffffffffffff16021790555050565b5f81519050919050565b5f82825260208201905092915050565b5f5b8381101561151b578082015181840152602081019050611500565b5f8484015250505050565b5f601f19601f8301169050919050565b5f611540826114e4565b61154a81856114ee565b935061155a8185602086016114fe565b61156381611526565b840191505092915050565b5f6020820190508181035f8301526115868184611536565b905092915050565b5f80fd5b5f73ffffffffffffffffffffffffffffffffffffffff82169050919050565b5f6115bb82611592565b9050919050565b6115cb816115b1565b81146115d5575f80fd5b50565b5f813590506115e6816115c2565b92915050565b5f819050919050565b6115fe816115ec565b8114611608575f80fd5b50565b5f81359050611619816115f5565b92915050565b5f80604083850312156116355761163461158e565b5b5f611642858286016115d8565b92505060206116538582860161160b565b9150509250929050565b5f8115159050919050565b6116718161165d565b82525050565b5f60208201905061168a5f830184611668565b92915050565b611699816115ec565b82525050565b5f6020820190506116b25f830184611690565b92915050565b5f805f606084860312156116cf576116ce61158e565b5b5f6116dc868287016115d8565b93505060206116ed868287016115d8565b92505060406116fe8682870161160b565b9150509250925092565b5f60ff82169050919050565b61171d81611708565b82525050565b5f6020820190506117365f830184611714565b92915050565b5f602082840312156117515761175061158e565b5b5f61175e848285016115d8565b91505092915050565b611770816115b1565b82525050565b5f6020820190506117895f830184611767565b92915050565b5f80604083850312156117a5576117a461158e565b5b5f6117b2858286016115d8565b92505060206117c3858286016115d8565b9150509250929050565b7f4e487b71000000000000000000000000000000000000000000000000000000005f52602260045260245ffd5b5f600282049050600182168061181157607f821691505b602082108103611824576118236117cd565b5b50919050565b7f46697665546f6b656e3a20596f752063616e6e6f74207370656e6420746861745f8201527f206d756368206f6e2074686973206163636f756e740000000000000000000000602082015250565b5f6118846035836114ee565b915061188f8261182a565b604082019050919050565b5f6020820190508181035f8301526118b181611878565b9050919050565b7f4e487b71000000000000000000000000000000000000000000000000000000005f52601160045260245ffd5b5f6118ef826115ec565b91506118fa836115ec565b9250828203905081811115611912576119116118b8565b5b92915050565b5f611922826115ec565b915061192d836115ec565b9250828201905080821115611945576119446118b8565b5b92915050565b7f4f776e61626c653a206f6e6c79206f776e65722063616e2063616c6c207468695f8201527f732066756e6374696f6e00000000000000000000000000000000000000000000602082015250565b5f6119a5602a836114ee565b91506119b08261194b565b604082019050919050565b5f6020820190508181035f8301526119d281611999565b9050919050565b7f46697665546f6b656e3a20617070726f76652063616e6e6f7420626520646f6e5f8201527f652066726f6d207a65726f206164647265737300000000000000000000000000602082015250565b5f611a336033836114ee565b9150611a3e826119d9565b604082019050919050565b5f6020820190508181035f830152611a6081611a27565b9050919050565b7f46697665546f6b656e3a20617070726f76652063616e6e6f7420626520746f205f8201527f7a65726f20616464726573730000000000000000000000000000000000000000602082015250565b5f611ac1602c836114ee565b9150611acc82611a67565b604082019050919050565b5f6020820190508181035f830152611aee81611ab5565b9050919050565b7f46697665546f6b656e3a207472616e736665722066726f6d207a65726f2061645f8201527f6472657373000000000000000000000000000000000000000000000000000000602082015250565b5f611b4f6025836114ee565b9150611b5a82611af5565b604082019050919050565b5f6020820190508181035f830152611b7c81611b43565b9050919050565b7f46697665546f6b656e3a207472616e7366657220746f207a65726f20616464725f8201527f6573730000000000000000000000000000000000000000000000000000000000602082015250565b5f611bdd6023836114ee565b9150611be882611b83565b604082019050919050565b5f6020820190508181035f830152611c0a81611bd1565b9050919050565b7f46697665546f6b656e3a2063616e74207472616e73666572206d6f72652074685f8201527f616e20796f7572206163636f756e7420686f6c64730000000000000000000000602082015250565b5f611c6b6035836114ee565b9150611c7682611c11565b604082019050919050565b5f6020820190508181035f830152611c9881611c5f565b9050919050565b7f46697665546f6b656e3a2063616e6e6f74206d696e7420746f207a65726f20615f8201527f6464726573730000000000000000000000000000000000000000000000000000602082015250565b5f611cf96026836114ee565b9150611d0482611c9f565b604082019050919050565b5f6020820190508181035f830152611d2681611ced565b9050919050565b7f46697665546f6b656e3a2063616e6e6f74206275726e2066726f6d207a65726f5f8201527f2061646472657373000000000000000000000000000000000000000000000000602082015250565b5f611d876028836114ee565b9150611d9282611d2d565b604082019050919050565b5f6020820190508181035f830152611db481611d7b565b9050919050565b7f46697665546f6b656e3a2043616e6e6f74206275726e206d6f7265207468616e5f8201527f20746865206163636f756e74206f776e73000000000000000000000000000000602082015250565b5f611e156031836114ee565b9150611e2082611dbb565b604082019050919050565b5f6020820190508181035f830152611e4281611e09565b9050919050565b7f4f776e61626c653a206e6577206f776e657220697320746865207a65726f20615f8201527f6464726573730000000000000000000000000000000000000000000000000000602082015250565b5f611ea36026836114ee565b9150611eae82611e49565b604082019050919050565b5f6020820190508181035f830152611ed081611e97565b905091905056fea264697066735822122007a4200750ffd353edce8e47a86ea53f49f0d10148506d7bbc5bc89be6ceb4dd64736f6c63430008150033",
  "immutableReferences": {},
  "source": "// SPDX-License-Identifier: MIT\npragma solidity >=0.8.0 <0.9.0;\n\nimport \"./Ownable.sol\";\n\ncontract FiveToken is Ownable {\n    uint256 private _totalSupply;\n    uint8 private _decimals;\n    string private _symbol;\n    string private _name;\n    \n    mapping (address => uint256) private _balances;\n    mapping (address => mapping (address => uint256)) private _allowances;\n\n    event Transfer(address indexed from, address indexed to, uint256 value);\n    event Approval(address indexed owner, address indexed spender, uint256 value);\n\n    constructor(string memory token_name, string memory ticker, uint8 token_decimals, uint256 token_totalSupply){\n        uint256 _initialSupply = token_totalSupply;// * (10 ** token_decimals); // 5 000 000 000 * (10^18)\n        \n        _name = token_name;\n        _symbol = ticker;\n        _decimals = token_decimals;\n        _totalSupply = _initialSupply;\n        \n\n        _balances[msg.sender] = _totalSupply;\n\n        emit Transfer(address(0), msg.sender, _totalSupply);\n    }\n\n\n    /* ---------------------------internal methods---------------------------------------  */\n\n    function _transfer(address sender, address recipient, uint256 amount) internal {\n        require(sender != address(0), \"FiveToken: transfer from zero address\");\n        require(recipient != address(0), \"FiveToken: transfer to zero address\");\n        require(_balances[sender] >= amount, \"FiveToken: cant transfer more than your account holds\");\n\n        _balances[sender] = _balances[sender] - amount;\n        _balances[recipient] = _balances[recipient] + amount;\n\n        emit Transfer(sender, recipient, amount);\n    }\n\n    function _mint(address account, uint256 amount) internal {\n        require(account != address(0), \"FiveToken: cannot mint to zero address\");\n\n        _totalSupply = _totalSupply + amount;\n        _balances[account] = _balances[account] + amount;\n\n        emit Transfer(address(0), account, amount);\n    }\n\n    function _burn(address account, uint256 amount) internal {\n        require(account != address(0), \"FiveToken: cannot burn from zero address\");\n        require(_balances[account] >= amount, \"FiveToken: Cannot burn more than the account owns\");\n\n        _balances[account] = _balances[account] - amount;\n        _totalSupply = _totalSupply - amount;\n\n        emit Transfer(account, address(0), amount);\n    }\n\n    function _approve(address owner, address spender, uint256 amount) internal {\n        require(owner != address(0), \"FiveToken: approve cannot be done from zero address\");\n        require(spender != address(0), \"FiveToken: approve cannot be to zero address\");\n\n        _allowances[owner][spender] = amount;\n\n        emit Approval(owner,spender,amount);\n    }\n\n\n    /* ---------------------------Getters (view)---------------------------------------  */\n\n    function decimals() external view returns (uint8) {\n        return _decimals;\n    }\n\n    function symbol() external view returns (string memory) {\n        return _symbol;\n    }\n\n    function name() external view returns (string memory) {\n        return _name;\n    }\n\n    function totalSupply() external view returns (uint256){\n        return _totalSupply;\n    }\n\n    function getOwner() external view returns (address) {\n        return owner();\n    }\n\n    function balanceOf(address account) external view returns (uint256) {\n        return _balances[account];\n    } \n\n    function allowance(address owner, address spender) external view returns(uint256){\n        return _allowances[owner][spender];\n    }\n\n    /* --------------------public & external Methods-------------  */\n    \n    // @onlyOwner\n    function burn(address account, uint256 amount) public onlyOwner returns (bool) {\n        _burn(account, amount);\n        return true;\n    }\n\n    // @onlyOwner\n    function mint(address account, uint256 amount) public onlyOwner returns (bool) {\n        _mint(account, amount);\n        return true;\n    }\n\n    function increaseAllowance(address spender, uint256 amount) public returns (bool) {\n        _approve(msg.sender, spender, _allowances[msg.sender][spender]+amount);\n        return true;\n    }\n \n    function decreaseAllowance(address spender, uint256 amount) public returns (bool) {\n        _approve(msg.sender, spender, _allowances[msg.sender][spender]-amount);\n        return true;\n    }\n\n    function transfer(address recipient, uint256 amount) external returns (bool) {\n        _transfer(msg.sender, recipient, amount);\n        return true;\n    }\n\n    function transferFrom(address spender, address recipient, uint256 amount) external returns(bool){\n        require(_allowances[spender][msg.sender] >= amount, \"FiveToken: You cannot spend that much on this account\");\n        _transfer(spender, recipient, amount);\n        _approve(spender, msg.sender, _allowances[spender][msg.sender] - amount);\n        return true;\n    }\n    \n    function approve(address spender, uint256 amount) external returns (bool) {\n        _approve(msg.sender, spender, amount);\n        return true;\n    }\n}\n\n/* [KEYWORDS]\n     `address` : solidity base type to identify [transactions recipients] or [contract owner]\n     `payable` : the address can receive ETH / BNB\n     `event`   : external clients can subscribe and listen to it, [log/notification mechanism]\n     `indexed` : the parameter can be used as a filter to a search\n     `view`    : getter-only functions, no gas cost\n     `external`: can be used ONLY from external\n     `public`  : internal + external, use more gas than external\n*/\n\n/*\ninterface IBEP20 {\n\n  function totalSupply() external view returns (uint256);\n  function decimals() external view returns (uint8);\n  function symbol() external view returns (string memory);\n  function name() external view returns (string memory);\n  function getOwner() external view returns (address);\n  function balanceOf(address account) external view returns (uint256);\n  function transfer(address recipient, uint256 amount) external returns (bool);\n  function allowance(address _owner, address spender) external view returns (uint256);\n  function approve(address spender, uint256 amount) external returns (bool);\n  function transferFrom(address sender, address recipient, uint256 amount) external returns (bool);\n\n  event Transfer(address indexed from, address indexed to, uint256 value);\n  event Approval(address indexed owner, address indexed spender, uint256 value);\n}\n*/",
  "sourcePath": "/usr/src/app/contracts/FiveToken.sol",
  "compiler": {
    "name": "solc",
    "version": "0.8.21+commit.d9974bed.Emscripten.clang"
  },
  "schemaVersion": "3.4.16",
  "updatedAt": "2024-02-19T12:14:20.862Z",
  "networkType": "ethereum",
  "devdoc": {
    "kind": "dev",
    "methods": {},
    "version": 1
  },
  "userdoc": {
    "kind": "user",
    "methods": {},
    "version": 1
  }
}