{
  "contractName": "Stakeable",
  "abi": [
    {
      "inputs": [],
      "stateMutability": "nonpayable",
      "type": "constructor"
    },
    {
      "anonymous": false,
      "inputs": [
        {
          "indexed": true,
          "internalType": "address",
          "name": "user",
          "type": "address"
        },
        {
          "indexed": false,
          "internalType": "uint256",
          "name": "amount",
          "type": "uint256"
        },
        {
          "indexed": false,
          "internalType": "uint256",
          "name": "index",
          "type": "uint256"
        },
        {
          "indexed": false,
          "internalType": "uint256",
          "name": "timestamp",
          "type": "uint256"
        }
      ],
      "name": "Staked",
      "type": "event"
    },
    {
      "inputs": [
        {
          "internalType": "address",
          "name": "staker",
          "type": "address"
        }
      ],
      "name": "hasStake",
      "outputs": [
        {
          "components": [
            {
              "internalType": "uint256",
              "name": "total_amount",
              "type": "uint256"
            },
            {
              "components": [
                {
                  "internalType": "address",
                  "name": "user",
                  "type": "address"
                },
                {
                  "internalType": "uint256",
                  "name": "amount",
                  "type": "uint256"
                },
                {
                  "internalType": "uint256",
                  "name": "since",
                  "type": "uint256"
                },
                {
                  "internalType": "uint256",
                  "name": "claimable",
                  "type": "uint256"
                }
              ],
              "internalType": "struct Stakeable.Stake[]",
              "name": "stakes",
              "type": "tuple[]"
            }
          ],
          "internalType": "struct Stakeable.StakingSummary",
          "name": "",
          "type": "tuple"
        }
      ],
      "stateMutability": "view",
      "type": "function"
    }
  ],
  "bytecode": "0x60806040526103e860005534801561001657600080fd5b506001808160018154018082558091505003906000526020600020905050610681806100436000396000f3fe608060405234801561001057600080fd5b506004361061002b5760003560e01c8063e73e14bf14610030575b600080fd5b61004a6004803603810190610045919061032b565b610060565b60405161005791906104c1565b60405180910390f35b6100686102ae565b6000806040518060400160405280600081526020016001600260008873ffffffffffffffffffffffffffffffffffffffff1673ffffffffffffffffffffffffffffffffffffffff16815260200190815260200160002054815481106100d0576100cf6104e3565b5b9060005260206000209060020201600101805480602002602001604051908101604052809291908181526020016000905b828210156101a757838290600052602060002090600402016040518060800160405290816000820160009054906101000a900473ffffffffffffffffffffffffffffffffffffffff1673ffffffffffffffffffffffffffffffffffffffff1673ffffffffffffffffffffffffffffffffffffffff168152602001600182015481526020016002820154815260200160038201548152505081526020019060010190610101565b50505050815250905060005b8160200151518110156102585760006101e9836020015183815181106101dc576101db6104e3565b5b602002602001015161026d565b90508083602001518381518110610203576102026104e3565b5b602002602001015160600181815250508260200151828151811061022a576102296104e3565b5b602002602001015160200151846102419190610541565b9350506001816102519190610541565b90506101b3565b50818160000181815250508092505050919050565b600080548260200151610e108460400151426102899190610575565b61029391906105d8565b61029d9190610609565b6102a791906105d8565b9050919050565b604051806040016040528060008152602001606081525090565b600080fd5b600073ffffffffffffffffffffffffffffffffffffffff82169050919050565b60006102f8826102cd565b9050919050565b610308816102ed565b811461031357600080fd5b50565b600081359050610325816102ff565b92915050565b600060208284031215610341576103406102c8565b5b600061034f84828501610316565b91505092915050565b6000819050919050565b61036b81610358565b82525050565b600081519050919050565b600082825260208201905092915050565b6000819050602082019050919050565b6103a6816102ed565b82525050565b6080820160008201516103c2600085018261039d565b5060208201516103d56020850182610362565b5060408201516103e86040850182610362565b5060608201516103fb6060850182610362565b50505050565b600061040d83836103ac565b60808301905092915050565b6000602082019050919050565b600061043182610371565b61043b818561037c565b93506104468361038d565b8060005b8381101561047757815161045e8882610401565b975061046983610419565b92505060018101905061044a565b5085935050505092915050565b600060408301600083015161049c6000860182610362565b50602083015184820360208601526104b48282610426565b9150508091505092915050565b600060208201905081810360008301526104db8184610484565b905092915050565b7f4e487b7100000000000000000000000000000000000000000000000000000000600052603260045260246000fd5b7f4e487b7100000000000000000000000000000000000000000000000000000000600052601160045260246000fd5b600061054c82610358565b915061055783610358565b925082820190508082111561056f5761056e610512565b5b92915050565b600061058082610358565b915061058b83610358565b92508282039050818111156105a3576105a2610512565b5b92915050565b7f4e487b7100000000000000000000000000000000000000000000000000000000600052601260045260246000fd5b60006105e382610358565b91506105ee83610358565b9250826105fe576105fd6105a9565b5b828204905092915050565b600061061482610358565b915061061f83610358565b925082820261062d81610358565b9150828204841483151761064457610643610512565b5b509291505056fea26469706673582212206d1b9b2f1d403898cd335f9ad2f632a5caf90688744ae480a7dfb55d3ac5fdce64736f6c63430008130033",
  "immutableReferences": {},
  "source": "// SPDX-License-Identifier: MIT\npragma solidity >0.4.0 <= 0.8.19;\n\n\ncontract Stakeable {\n\n    struct Stake {\n        address user;\n        uint256 amount;\n        uint256 since;\n        uint256 claimable; // the available reward amount from staking\n    }\n\n    struct Stakeholder {\n        address user;\n        Stake[] address_stakes;\n    }\n\n    struct StakingSummary{\n        uint256 total_amount;\n        Stake[] stakes;\n    }\n\n    uint256 internal rewardPerHour = 1000; // 0.001 / 1%\n\n    /* attributes */\n    Stakeholder[] internal stakeholders;\n\n    mapping(address => uint256) internal indexOf; // to \n\n    constructor() {\n        stakeholders.push(); // push empty item to avoid issue of index - 1 [?] still needed [?]\n    }\n\n\n    /* logs */\n    event Staked(address indexed user, uint256 amount, uint256 index, uint256 timestamp);\n\n    /* internal methods */\n    function _addStakeholder(address newStake) internal returns (uint256) {\n        stakeholders.push(); // making a slot for the new item\n        uint256 index = stakeholders.length - 1;\n        stakeholders[index].user = newStake;\n        indexOf[newStake] = index; // keeping index to avoid iterating array -> save gas \n        return index;\n    }\n\n    function _stake(uint256 amount) internal {\n        require(amount > 0, \"Cannot stake a 0 amount\");\n\n        uint256 senderIndex = indexOf[msg.sender];\n        uint256 timestamp = block.timestamp;\n\n        if (senderIndex == 0) {\n            senderIndex = _addStakeholder(msg.sender);\n        }\n\n        stakeholders[senderIndex].address_stakes.push(Stake(msg.sender, amount, timestamp, 0));\n        emit Staked(msg.sender, amount, senderIndex, timestamp);\n    }\n\n    function calculateStakeReward(Stake memory _current_stake) internal view returns(uint256) {\n        return (((block.timestamp - _current_stake.since) / 1 hours) * _current_stake.amount) / rewardPerHour;\n    }\n\n    function _withdrawStake(uint256 amount, uint256 index) internal returns(uint256) {\n        uint256 user_index = indexOf[msg.sender];\n\n        // memory keyword -> store the data temporarily\n        Stake memory current_stake = stakeholders[user_index].address_stakes[index];\n        require(current_stake.amount >= amount, \"Staking: Cannot withdraw more than you have staked\");\n\n        \n         uint256 reward = calculateStakeReward(current_stake);\n         current_stake.amount = current_stake.amount - amount;\n         \n\n         if (current_stake.amount == 0) {\n            // clean empty stake for gas refund\n            delete stakeholders[user_index].address_stakes[index];\n         } else {\n            stakeholders[user_index].address_stakes[index].amount = current_stake.amount; \n            stakeholders[user_index].address_stakes[index].since = block.timestamp; // Reset timer of stake    \n         }\n\n         return amount+reward;\n\n     }\n\n     /* public methods */\n    function hasStake(address staker) public view returns (StakingSummary memory) {\n        uint256 totalStakeAmount; \n        // Keep a summary in memory since we need to calculate this\n        StakingSummary memory summary = StakingSummary(0, stakeholders[indexOf[staker]].address_stakes);\n        // Itterate all stakes and grab amount of stakes\n        for (uint256 s = 0; s < summary.stakes.length; s += 1){\n           uint256 availableReward = calculateStakeReward(summary.stakes[s]);\n           summary.stakes[s].claimable = availableReward;\n           totalStakeAmount = totalStakeAmount+summary.stakes[s].amount;\n       }\n       // Assign calculate amount to summary\n       summary.total_amount = totalStakeAmount;\n        return summary;\n    }\n\n}\n\n\n/* Globals in solidity\n    block => current block | timestamp\n    msg => transaction data | sender, value\n    this => the current contract, can be cast as address\n */\n\n /* -- Method calculateStakeReward details --\n    First calculate how long the stake has been active\n    Use current seconds since epoch - the seconds since epoch the stake was made\n    The output will be duration in SECONDS ,\n    We will reward the user 0.1% per Hour So thats 0.1% per 3600 seconds\n    the alghoritm is  seconds = block.timestamp - stake seconds (block.timestap - _stake.since)\n    hours = Seconds / 3600 (seconds /3600) 3600 is an variable in Solidity names hours\n    we then multiply each token by the hours staked , then divide by the rewardPerHour rate \n */",
  "sourcePath": "/usr/src/app/contracts/Stakeable.sol",
  "compiler": {
    "name": "solc",
    "version": "0.8.19+commit.7dd6d404.Emscripten.clang"
  },
  "schemaVersion": "3.4.16",
  "updatedAt": "2024-03-23T11:15:55.295Z",
  "devdoc": {
    "kind": "dev",
    "methods": {},
    "version": 1
  },
  "userdoc": {
    "kind": "user",
    "methods": {},
    "version": 1
  }
}