{
  "contractName": "Stakeable",
  "abi": [
    {
      "inputs": [],
      "stateMutability": "nonpayable",
      "type": "constructor"
    },
    {
      "anonymous": false,
      "inputs": [
        {
          "indexed": true,
          "internalType": "address",
          "name": "user",
          "type": "address"
        },
        {
          "indexed": false,
          "internalType": "uint256",
          "name": "amount",
          "type": "uint256"
        },
        {
          "indexed": false,
          "internalType": "uint256",
          "name": "index",
          "type": "uint256"
        },
        {
          "indexed": false,
          "internalType": "uint256",
          "name": "timestamp",
          "type": "uint256"
        }
      ],
      "name": "Staked",
      "type": "event"
    },
    {
      "inputs": [
        {
          "internalType": "address",
          "name": "staker",
          "type": "address"
        }
      ],
      "name": "hasStake",
      "outputs": [
        {
          "components": [
            {
              "internalType": "uint256",
              "name": "total_amount",
              "type": "uint256"
            },
            {
              "components": [
                {
                  "internalType": "address",
                  "name": "user",
                  "type": "address"
                },
                {
                  "internalType": "uint256",
                  "name": "amount",
                  "type": "uint256"
                },
                {
                  "internalType": "uint256",
                  "name": "since",
                  "type": "uint256"
                },
                {
                  "internalType": "uint256",
                  "name": "claimable",
                  "type": "uint256"
                }
              ],
              "internalType": "struct Stakeable.Stake[]",
              "name": "stakes",
              "type": "tuple[]"
            }
          ],
          "internalType": "struct Stakeable.StakingSummary",
          "name": "",
          "type": "tuple"
        }
      ],
      "stateMutability": "view",
      "type": "function"
    }
  ],
  "bytecode": "0x60806040526103e85f55348015610014575f80fd5b506001808160018154018082558091505003905f5260205f2090505061064e8061003d5f395ff3fe608060405234801561000f575f80fd5b5060043610610029575f3560e01c8063e73e14bf1461002d575b5f80fd5b61004760048036038101906100429190610313565b61005d565b604051610054919061049a565b60405180910390f35b61006561029c565b5f8060405180604001604052805f8152602001600160025f8873ffffffffffffffffffffffffffffffffffffffff1673ffffffffffffffffffffffffffffffffffffffff1681526020019081526020015f2054815481106100c9576100c86104ba565b5b905f5260205f209060020201600101805480602002602001604051908101604052809291908181526020015f905b82821015610199578382905f5260205f2090600402016040518060800160405290815f82015f9054906101000a900473ffffffffffffffffffffffffffffffffffffffff1673ffffffffffffffffffffffffffffffffffffffff1673ffffffffffffffffffffffffffffffffffffffff1681526020016001820154815260200160028201548152602001600382015481525050815260200190600101906100f7565b5050505081525090505f5b816020015151811015610248575f6101d9836020015183815181106101cc576101cb6104ba565b5b602002602001015161025c565b905080836020015183815181106101f3576101f26104ba565b5b602002602001015160600181815250508260200151828151811061021a576102196104ba565b5b602002602001015160200151846102319190610514565b9350506001816102419190610514565b90506101a4565b5081815f0181815250508092505050919050565b5f80548260200151610e108460400151426102779190610547565b61028191906105a7565b61028b91906105d7565b61029591906105a7565b9050919050565b60405180604001604052805f8152602001606081525090565b5f80fd5b5f73ffffffffffffffffffffffffffffffffffffffff82169050919050565b5f6102e2826102b9565b9050919050565b6102f2816102d8565b81146102fc575f80fd5b50565b5f8135905061030d816102e9565b92915050565b5f60208284031215610328576103276102b5565b5b5f610335848285016102ff565b91505092915050565b5f819050919050565b6103508161033e565b82525050565b5f81519050919050565b5f82825260208201905092915050565b5f819050602082019050919050565b610388816102d8565b82525050565b608082015f8201516103a25f85018261037f565b5060208201516103b56020850182610347565b5060408201516103c86040850182610347565b5060608201516103db6060850182610347565b50505050565b5f6103ec838361038e565b60808301905092915050565b5f602082019050919050565b5f61040e82610356565b6104188185610360565b935061042383610370565b805f5b8381101561045357815161043a88826103e1565b9750610445836103f8565b925050600181019050610426565b5085935050505092915050565b5f604083015f8301516104755f860182610347565b506020830151848203602086015261048d8282610404565b9150508091505092915050565b5f6020820190508181035f8301526104b28184610460565b905092915050565b7f4e487b71000000000000000000000000000000000000000000000000000000005f52603260045260245ffd5b7f4e487b71000000000000000000000000000000000000000000000000000000005f52601160045260245ffd5b5f61051e8261033e565b91506105298361033e565b9250828201905080821115610541576105406104e7565b5b92915050565b5f6105518261033e565b915061055c8361033e565b9250828203905081811115610574576105736104e7565b5b92915050565b7f4e487b71000000000000000000000000000000000000000000000000000000005f52601260045260245ffd5b5f6105b18261033e565b91506105bc8361033e565b9250826105cc576105cb61057a565b5b828204905092915050565b5f6105e18261033e565b91506105ec8361033e565b92508282026105fa8161033e565b91508282048414831517610611576106106104e7565b5b509291505056fea26469706673582212204afe92e8180cd6ce3beae94fa2cc2277f121e74fdb12c88df0fa3ed66d68a5e064736f6c63430008150033",
  "immutableReferences": {},
  "source": "// SPDX-License-Identifier: MIT\npragma solidity >=0.8.0 <0.9.0;\n\n\ncontract Stakeable {\n\n    struct Stake {\n        address user;\n        uint256 amount;\n        uint256 since;\n        uint256 claimable; // the available reward amount from staking\n    }\n\n    struct Stakeholder {\n        address user;\n        Stake[] address_stakes;\n    }\n\n    struct StakingSummary{\n        uint256 total_amount;\n        Stake[] stakes;\n    }\n\n    uint256 internal rewardPerHour = 1000; // 0.001 / 1%\n\n    /* attributes */\n    Stakeholder[] internal stakeholders;\n\n    mapping(address => uint256) internal indexOf; // to \n\n    constructor() {\n        stakeholders.push(); // push empty item to avoid issue of index - 1 [?] still needed [?]\n    }\n\n\n    /* logs */\n    event Staked(address indexed user, uint256 amount, uint256 index, uint256 timestamp);\n\n    /* internal methods */\n    function _addStakeholder(address newStake) internal returns (uint256) {\n        stakeholders.push(); // making a slot for the new item\n        uint256 index = stakeholders.length - 1;\n        stakeholders[index].user = newStake;\n        indexOf[newStake] = index; // keeping index to avoid iterating array -> save gas \n        return index;\n    }\n\n    function _stake(uint256 amount) internal {\n        require(amount > 0, \"Cannot stake a 0 amount\");\n\n        uint256 senderIndex = indexOf[msg.sender];\n        uint256 timestamp = block.timestamp;\n\n        if (senderIndex == 0) {\n            senderIndex = _addStakeholder(msg.sender);\n        }\n\n        stakeholders[senderIndex].address_stakes.push(Stake(msg.sender, amount, timestamp, 0));\n        emit Staked(msg.sender, amount, senderIndex, timestamp);\n    }\n\n    function calculateStakeReward(Stake memory _current_stake) internal view returns(uint256) {\n        return (((block.timestamp - _current_stake.since) / 1 hours) * _current_stake.amount) / rewardPerHour;\n    }\n\n    function _withdrawStake(uint256 amount, uint256 index) internal returns(uint256) {\n        uint256 user_index = indexOf[msg.sender];\n\n        // memory keyword -> store the data temporarily\n        Stake memory current_stake = stakeholders[user_index].address_stakes[index];\n        require(current_stake.amount >= amount, \"Staking: Cannot withdraw more than you have staked\");\n\n        \n         uint256 reward = calculateStakeReward(current_stake);\n         current_stake.amount = current_stake.amount - amount;\n         \n\n         if (current_stake.amount == 0) {\n            // clean empty stake for gas refund\n            delete stakeholders[user_index].address_stakes[index];\n         } else {\n            stakeholders[user_index].address_stakes[index].amount = current_stake.amount; \n            stakeholders[user_index].address_stakes[index].since = block.timestamp; // Reset timer of stake    \n         }\n\n         return amount+reward;\n\n     }\n\n     /* public methods */\n    function hasStake(address staker) public view returns (StakingSummary memory) {\n        uint256 totalStakeAmount; \n        // Keep a summary in memory since we need to calculate this\n        StakingSummary memory summary = StakingSummary(0, stakeholders[indexOf[staker]].address_stakes);\n        // Itterate all stakes and grab amount of stakes\n        for (uint256 s = 0; s < summary.stakes.length; s += 1){\n           uint256 availableReward = calculateStakeReward(summary.stakes[s]);\n           summary.stakes[s].claimable = availableReward;\n           totalStakeAmount = totalStakeAmount+summary.stakes[s].amount;\n       }\n       // Assign calculate amount to summary\n       summary.total_amount = totalStakeAmount;\n        return summary;\n    }\n\n}\n\n\n/* Globals in solidity\n    block => current block | timestamp\n    msg => transaction data | sender, value\n    this => the current contract, can be cast as address\n */\n\n /* -- Method calculateStakeReward details --\n    First calculate how long the stake has been active\n    Use current seconds since epoch - the seconds since epoch the stake was made\n    The output will be duration in SECONDS ,\n    We will reward the user 0.1% per Hour So thats 0.1% per 3600 seconds\n    the alghoritm is  seconds = block.timestamp - stake seconds (block.timestap - _stake.since)\n    hours = Seconds / 3600 (seconds /3600) 3600 is an variable in Solidity names hours\n    we then multiply each token by the hours staked , then divide by the rewardPerHour rate \n */",
  "sourcePath": "/usr/src/app/contracts/Stakeable.sol",
  "compiler": {
    "name": "solc",
    "version": "0.8.21+commit.d9974bed.Emscripten.clang"
  },
  "schemaVersion": "3.4.16",
  "updatedAt": "2024-03-22T11:56:40.696Z",
  "devdoc": {
    "kind": "dev",
    "methods": {},
    "version": 1
  },
  "userdoc": {
    "kind": "user",
    "methods": {},
    "version": 1
  }
}